{
  "contractName": "MainFighter",
  "abi": [
    {
      "anonymous": false,
      "inputs": [
        {
          "indexed": true,
          "internalType": "address",
          "name": "_owner",
          "type": "address"
        },
        {
          "indexed": true,
          "internalType": "address",
          "name": "_approved",
          "type": "address"
        },
        {
          "indexed": false,
          "internalType": "uint256",
          "name": "_tokenId",
          "type": "uint256"
        }
      ],
      "name": "Approval",
      "type": "event"
    },
    {
      "anonymous": false,
      "inputs": [
        {
          "indexed": false,
          "internalType": "address",
          "name": "_owner",
          "type": "address"
        },
        {
          "indexed": false,
          "internalType": "address",
          "name": "_operator",
          "type": "address"
        },
        {
          "indexed": false,
          "internalType": "bool",
          "name": "_approved",
          "type": "bool"
        }
      ],
      "name": "ApprovalForAll",
      "type": "event"
    },
    {
      "anonymous": false,
      "inputs": [
        {
          "indexed": false,
          "internalType": "uint256",
          "name": "id",
          "type": "uint256"
        },
        {
          "indexed": false,
          "internalType": "string",
          "name": "name",
          "type": "string"
        },
        {
          "indexed": false,
          "internalType": "uint8",
          "name": "dmg",
          "type": "uint8"
        },
        {
          "indexed": false,
          "internalType": "uint8",
          "name": "speed",
          "type": "uint8"
        }
      ],
      "name": "FighterGenerated",
      "type": "event"
    },
    {
      "anonymous": false,
      "inputs": [
        {
          "indexed": false,
          "internalType": "uint256",
          "name": "id",
          "type": "uint256"
        },
        {
          "indexed": false,
          "internalType": "string",
          "name": "name",
          "type": "string"
        }
      ],
      "name": "NameChanged",
      "type": "event"
    },
    {
      "anonymous": false,
      "inputs": [
        {
          "indexed": true,
          "internalType": "address",
          "name": "previousOwner",
          "type": "address"
        },
        {
          "indexed": true,
          "internalType": "address",
          "name": "newOwner",
          "type": "address"
        }
      ],
      "name": "OwnershipTransferred",
      "type": "event"
    },
    {
      "anonymous": false,
      "inputs": [
        {
          "indexed": true,
          "internalType": "address",
          "name": "_from",
          "type": "address"
        },
        {
          "indexed": true,
          "internalType": "address",
          "name": "_to",
          "type": "address"
        },
        {
          "indexed": false,
          "internalType": "uint256",
          "name": "_tokenId",
          "type": "uint256"
        }
      ],
      "name": "Transfer",
      "type": "event"
    },
    {
      "inputs": [
        {
          "internalType": "address",
          "name": "_to",
          "type": "address"
        },
        {
          "internalType": "uint256",
          "name": "_tokenId",
          "type": "uint256"
        }
      ],
      "name": "approve",
      "outputs": [],
      "stateMutability": "nonpayable",
      "type": "function"
    },
    {
      "inputs": [
        {
          "internalType": "address",
          "name": "_owner",
          "type": "address"
        }
      ],
      "name": "balanceOf",
      "outputs": [
        {
          "internalType": "uint256",
          "name": "",
          "type": "uint256"
        }
      ],
      "stateMutability": "view",
      "type": "function",
      "constant": true
    },
    {
      "inputs": [],
      "name": "decimals",
      "outputs": [
        {
          "internalType": "uint8",
          "name": "",
          "type": "uint8"
        }
      ],
      "stateMutability": "view",
      "type": "function",
      "constant": true
    },
    {
      "inputs": [
        {
          "internalType": "uint256",
          "name": "",
          "type": "uint256"
        }
      ],
      "name": "fighters",
      "outputs": [
        {
          "internalType": "string",
          "name": "name",
          "type": "string"
        },
        {
          "internalType": "uint256",
          "name": "id",
          "type": "uint256"
        },
        {
          "internalType": "uint8",
          "name": "dmg",
          "type": "uint8"
        },
        {
          "internalType": "uint8",
          "name": "speed",
          "type": "uint8"
        }
      ],
      "stateMutability": "view",
      "type": "function",
      "constant": true
    },
    {
      "inputs": [],
      "name": "generateFighter",
      "outputs": [
        {
          "internalType": "uint256",
          "name": "",
          "type": "uint256"
        }
      ],
      "stateMutability": "nonpayable",
      "type": "function"
    },
    {
      "inputs": [
        {
          "internalType": "uint256",
          "name": "_tokenId",
          "type": "uint256"
        }
      ],
      "name": "getApproved",
      "outputs": [
        {
          "internalType": "address",
          "name": "",
          "type": "address"
        }
      ],
      "stateMutability": "view",
      "type": "function",
      "constant": true
    },
    {
      "inputs": [
        {
          "internalType": "uint256",
          "name": "_id",
          "type": "uint256"
        }
      ],
      "name": "getFighterOwner",
      "outputs": [
        {
          "internalType": "address",
          "name": "",
          "type": "address"
        }
      ],
      "stateMutability": "view",
      "type": "function",
      "constant": true
    },
    {
      "inputs": [],
      "name": "getFighters",
      "outputs": [
        {
          "components": [
            {
              "internalType": "string",
              "name": "name",
              "type": "string"
            },
            {
              "internalType": "uint256",
              "name": "id",
              "type": "uint256"
            },
            {
              "internalType": "uint8",
              "name": "dmg",
              "type": "uint8"
            },
            {
              "internalType": "uint8",
              "name": "speed",
              "type": "uint8"
            }
          ],
          "internalType": "struct Fighter.FighterPersonality[]",
          "name": "",
          "type": "tuple[]"
        }
      ],
      "stateMutability": "view",
      "type": "function",
      "constant": true
    },
    {
      "inputs": [
        {
          "internalType": "address",
          "name": "owner",
          "type": "address"
        },
        {
          "internalType": "address",
          "name": "operator",
          "type": "address"
        }
      ],
      "name": "isApprovedForAll",
      "outputs": [
        {
          "internalType": "bool",
          "name": "",
          "type": "bool"
        }
      ],
      "stateMutability": "view",
      "type": "function",
      "constant": true
    },
    {
      "inputs": [],
      "name": "name",
      "outputs": [
        {
          "internalType": "string",
          "name": "",
          "type": "string"
        }
      ],
      "stateMutability": "view",
      "type": "function",
      "constant": true
    },
    {
      "inputs": [],
      "name": "owner",
      "outputs": [
        {
          "internalType": "address",
          "name": "",
          "type": "address"
        }
      ],
      "stateMutability": "view",
      "type": "function",
      "constant": true
    },
    {
      "inputs": [
        {
          "internalType": "uint256",
          "name": "_tokenId",
          "type": "uint256"
        }
      ],
      "name": "ownerOf",
      "outputs": [
        {
          "internalType": "address",
          "name": "",
          "type": "address"
        }
      ],
      "stateMutability": "view",
      "type": "function",
      "constant": true
    },
    {
      "inputs": [],
      "name": "renounceOwnership",
      "outputs": [],
      "stateMutability": "nonpayable",
      "type": "function"
    },
    {
      "inputs": [
        {
          "internalType": "address",
          "name": "_from",
          "type": "address"
        },
        {
          "internalType": "address",
          "name": "_to",
          "type": "address"
        },
        {
          "internalType": "uint256",
          "name": "_tokenId",
          "type": "uint256"
        }
      ],
      "name": "safeTransferFrom",
      "outputs": [],
      "stateMutability": "nonpayable",
      "type": "function"
    },
    {
      "inputs": [
        {
          "internalType": "address",
          "name": "operator",
          "type": "address"
        },
        {
          "internalType": "bool",
          "name": "_approved",
          "type": "bool"
        }
      ],
      "name": "setApprovalForAll",
      "outputs": [],
      "stateMutability": "nonpayable",
      "type": "function"
    },
    {
      "inputs": [],
      "name": "symbol",
      "outputs": [
        {
          "internalType": "string",
          "name": "",
          "type": "string"
        }
      ],
      "stateMutability": "view",
      "type": "function",
      "constant": true
    },
    {
      "inputs": [
        {
          "internalType": "address",
          "name": "_from",
          "type": "address"
        },
        {
          "internalType": "address",
          "name": "_to",
          "type": "address"
        },
        {
          "internalType": "uint256",
          "name": "_tokenId",
          "type": "uint256"
        }
      ],
      "name": "transferFrom",
      "outputs": [],
      "stateMutability": "nonpayable",
      "type": "function"
    },
    {
      "inputs": [
        {
          "internalType": "address",
          "name": "newOwner",
          "type": "address"
        }
      ],
      "name": "transferOwnership",
      "outputs": [],
      "stateMutability": "nonpayable",
      "type": "function"
    },
    {
      "inputs": [],
      "name": "buyFighter",
      "outputs": [],
      "stateMutability": "payable",
      "type": "function",
      "payable": true
    },
    {
      "inputs": [
        {
          "internalType": "uint256",
          "name": "_id",
          "type": "uint256"
        },
        {
          "internalType": "string",
          "name": "_name",
          "type": "string"
        }
      ],
      "name": "changeName",
      "outputs": [],
      "stateMutability": "payable",
      "type": "function",
      "payable": true
    },
    {
      "inputs": [],
      "name": "getAllFighters",
      "outputs": [
        {
          "components": [
            {
              "internalType": "string",
              "name": "name",
              "type": "string"
            },
            {
              "internalType": "uint256",
              "name": "id",
              "type": "uint256"
            },
            {
              "internalType": "uint8",
              "name": "dmg",
              "type": "uint8"
            },
            {
              "internalType": "uint8",
              "name": "speed",
              "type": "uint8"
            }
          ],
          "internalType": "struct Fighter.FighterPersonality[]",
          "name": "",
          "type": "tuple[]"
        }
      ],
      "stateMutability": "view",
      "type": "function",
      "constant": true
    },
    {
      "inputs": [
        {
          "internalType": "uint256",
          "name": "_id",
          "type": "uint256"
        }
      ],
      "name": "getOwnFighter",
      "outputs": [
        {
          "internalType": "address",
          "name": "",
          "type": "address"
        }
      ],
      "stateMutability": "view",
      "type": "function",
      "constant": true
    },
    {
      "inputs": [],
      "name": "getContractBalance",
      "outputs": [],
      "stateMutability": "payable",
      "type": "function",
      "payable": true
    }
  ],
  "bytecode": "0x6080604052662386f26fc100006003553480156200001c57600080fd5b506040518060400160405280600781526020017f4669676874657200000000000000000000000000000000000000000000000000815250600790805190602001906200006a929190620001c9565b506040518060400160405280600281526020017f465400000000000000000000000000000000000000000000000000000000000081525060069080519060200190620000b8929190620001c9565b506000600860006101000a81548160ff021916908360ff160217905550620000f5620000e9620000fb60201b60201c565b6200010360201b60201c565b620002de565b600033905090565b6000600860019054906101000a900473ffffffffffffffffffffffffffffffffffffffff16905081600860016101000a81548173ffffffffffffffffffffffffffffffffffffffff021916908373ffffffffffffffffffffffffffffffffffffffff1602179055508173ffffffffffffffffffffffffffffffffffffffff168173ffffffffffffffffffffffffffffffffffffffff167f8be0079c531659141344cd1fd0a4f28419497f9722a3daafe3b4186f6b6457e060405160405180910390a35050565b828054620001d790620002a8565b90600052602060002090601f016020900481019282620001fb576000855562000247565b82601f106200021657805160ff191683800117855562000247565b8280016001018555821562000247579182015b828111156200024657825182559160200191906001019062000229565b5b5090506200025691906200025a565b5090565b5b80821115620002755760008160009055506001016200025b565b5090565b7f4e487b7100000000000000000000000000000000000000000000000000000000600052602260045260246000fd5b60006002820490506001821680620002c157607f821691505b60208210811415620002d857620002d762000279565b5b50919050565b6120a880620002ee6000396000f3fe6080604052600436106101405760003560e01c80636352211e116100b6578063a22cb4651161006f578063a22cb46514610421578063c39cbef11461044a578063c4de8c2e14610466578063e985e9c5146104a3578063eb5fa89c146104e0578063f2fde38b1461050b57610140565b80636352211e146103305780636f9fb98a1461036d57806370a0823114610377578063715018a6146103b45780638da5cb5b146103cb57806395d89b41146103f657610140565b806323b872dd1161010857806323b872dd1461020b5780632e6b221d14610234578063313ce5671461027457806342842e0e1461029f57806344c672b8146102c85780635e5c0b3b146102f357610140565b806306fdde0314610145578063081812fc14610170578063095ea7b3146101ad57806309b0b1b2146101d6578063193589d614610201575b600080fd5b34801561015157600080fd5b5061015a610534565b6040516101679190611530565b60405180910390f35b34801561017c57600080fd5b506101976004803603810190610192919061159c565b6105c2565b6040516101a4919061160a565b60405180910390f35b3480156101b957600080fd5b506101d460048036038101906101cf9190611651565b6105ff565b005b3480156101e257600080fd5b506101eb6106ba565b6040516101f8919061182b565b60405180910390f35b6102096107ef565b005b34801561021757600080fd5b50610232600480360381019061022d919061184d565b61084d565b005b34801561024057600080fd5b5061025b6004803603810190610256919061159c565b6108b7565b60405161026b94939291906118be565b60405180910390f35b34801561028057600080fd5b50610289610999565b604051610296919061190a565b60405180910390f35b3480156102ab57600080fd5b506102c660048036038101906102c1919061184d565b6109ac565b005b3480156102d457600080fd5b506102dd610a16565b6040516102ea9190611925565b60405180910390f35b3480156102ff57600080fd5b5061031a6004803603810190610315919061159c565b610c3f565b604051610327919061160a565b60405180910390f35b34801561033c57600080fd5b506103576004803603810190610352919061159c565b610c51565b604051610364919061160a565b60405180910390f35b610375610c8e565b005b34801561038357600080fd5b5061039e60048036038101906103999190611940565b610d5a565b6040516103ab9190611925565b60405180910390f35b3480156103c057600080fd5b506103c9610da6565b005b3480156103d757600080fd5b506103e0610e2e565b6040516103ed919061160a565b60405180910390f35b34801561040257600080fd5b5061040b610e58565b6040516104189190611530565b60405180910390f35b34801561042d57600080fd5b50610448600480360381019061044391906119a5565b610ee6565b005b610464600480360381019061045f9190611b1a565b610fb9565b005b34801561047257600080fd5b5061048d6004803603810190610488919061159c565b61100b565b60405161049a919061160a565b60405180910390f35b3480156104af57600080fd5b506104ca60048036038101906104c59190611b76565b611048565b6040516104d79190611bc5565b60405180910390f35b3480156104ec57600080fd5b506104f56110dc565b604051610502919061182b565b60405180910390f35b34801561051757600080fd5b50610532600480360381019061052d9190611940565b6110eb565b005b6007805461054190611c0f565b80601f016020809104026020016040519081016040528092919081815260200182805461056d90611c0f565b80156105ba5780601f1061058f576101008083540402835291602001916105ba565b820191906000526020600020905b81548152906001019060200180831161059d57829003601f168201915b505050505081565b60006004600083815260200190815260200160002060009054906101000a900473ffffffffffffffffffffffffffffffffffffffff169050919050565b816004600083815260200190815260200160002060006101000a81548173ffffffffffffffffffffffffffffffffffffffff021916908373ffffffffffffffffffffffffffffffffffffffff1602179055508173ffffffffffffffffffffffffffffffffffffffff163373ffffffffffffffffffffffffffffffffffffffff167f8c5be1e5ebec7d5bd14f71427d1e84f3dd0314c0f7b2291e5b200ac8c7c3b925836040516106ae9190611925565b60405180910390a35050565b60606000805480602002602001604051908101604052809291908181526020016000905b828210156107e6578382906000526020600020906003020160405180608001604052908160008201805461071190611c0f565b80601f016020809104026020016040519081016040528092919081815260200182805461073d90611c0f565b801561078a5780601f1061075f5761010080835404028352916020019161078a565b820191906000526020600020905b81548152906001019060200180831161076d57829003601f168201915b50505050508152602001600182015481526020016002820160009054906101000a900460ff1660ff1660ff1681526020016002820160019054906101000a900460ff1660ff1660ff1681525050815260200190600101906106de565b50505050905090565b6003543414610833576040517f08c379a000000000000000000000000000000000000000000000000000000000815260040161082a90611cb3565b60405180910390fd5b600061083d610a16565b905061084a3033836111e3565b50565b8173ffffffffffffffffffffffffffffffffffffffff168373ffffffffffffffffffffffffffffffffffffffff167fddf252ad1be2c89b69c2b068fc378daa952ba7f163c4a11628f55a4df523b3ef836040516108aa9190611925565b60405180910390a3505050565b600081815481106108c757600080fd5b90600052602060002090600302016000915090508060000180546108ea90611c0f565b80601f016020809104026020016040519081016040528092919081815260200182805461091690611c0f565b80156109635780601f1061093857610100808354040283529160200191610963565b820191906000526020600020905b81548152906001019060200180831161094657829003601f168201915b5050505050908060010154908060020160009054906101000a900460ff16908060020160019054906101000a900460ff16905084565b600860009054906101000a900460ff1681565b8173ffffffffffffffffffffffffffffffffffffffff168373ffffffffffffffffffffffffffffffffffffffff167fddf252ad1be2c89b69c2b068fc378daa952ba7f163c4a11628f55a4df523b3ef83604051610a099190611925565b60405180910390a3505050565b6000806001600080549050610a2b9190611d02565b90506000610a3960f961124d565b90506000610a47606361124d565b905060006040518060400160405280600481526020017f74657374000000000000000000000000000000000000000000000000000000008152509050600060405180608001604052808381526020018681526020018560ff1681526020018460ff1681525090806001815401808255809150506001900390600052602060002090600302016000909190919091506000820151816000019080519060200190610af19291906113f4565b506020820151816001015560408201518160020160006101000a81548160ff021916908360ff16021790555060608201518160020160016101000a81548160ff021916908360ff1602179055505050600260003373ffffffffffffffffffffffffffffffffffffffff1673ffffffffffffffffffffffffffffffffffffffff168152602001908152602001600020849080600181540180825580915050600190039060005260206000200160009091909190915055336001600086815260200190815260200160002060006101000a81548173ffffffffffffffffffffffffffffffffffffffff021916908373ffffffffffffffffffffffffffffffffffffffff1602179055507feafef9ee2dad9981839e802168c9af2fe10a139d5806540d9d3e7602c0e33d3484828585604051610c2d9493929190611d58565b60405180910390a18394505050505090565b6000610c4a8261100b565b9050919050565b60006001600083815260200190815260200160002060009054906101000a900473ffffffffffffffffffffffffffffffffffffffff169050919050565b610c966112a3565b73ffffffffffffffffffffffffffffffffffffffff16610cb4610e2e565b73ffffffffffffffffffffffffffffffffffffffff1614610d0a576040517f08c379a0000000000000000000000000000000000000000000000000000000008152600401610d0190611df0565b60405180910390fd5b610d12610e2e565b73ffffffffffffffffffffffffffffffffffffffff166108fc479081150290604051600060405180830381858888f19350505050158015610d57573d6000803e3d6000fd5b50565b6000600260008373ffffffffffffffffffffffffffffffffffffffff1673ffffffffffffffffffffffffffffffffffffffff168152602001908152602001600020805490509050919050565b610dae6112a3565b73ffffffffffffffffffffffffffffffffffffffff16610dcc610e2e565b73ffffffffffffffffffffffffffffffffffffffff1614610e22576040517f08c379a0000000000000000000000000000000000000000000000000000000008152600401610e1990611df0565b60405180910390fd5b610e2c60006112ab565b565b6000600860019054906101000a900473ffffffffffffffffffffffffffffffffffffffff16905090565b60068054610e6590611c0f565b80601f0160208091040260200160405190810160405280929190818152602001828054610e9190611c0f565b8015610ede5780601f10610eb357610100808354040283529160200191610ede565b820191906000526020600020905b815481529060010190602001808311610ec157829003601f168201915b505050505081565b80600560003373ffffffffffffffffffffffffffffffffffffffff1673ffffffffffffffffffffffffffffffffffffffff16815260200190815260200160002060008473ffffffffffffffffffffffffffffffffffffffff1673ffffffffffffffffffffffffffffffffffffffff16815260200190815260200160002060006101000a81548160ff0219169083151502179055507f17307eab39ab6107e8899845ad3d59bd9653f200f220920489ca2b5937696c31338383604051610fad93929190611e10565b60405180910390a15050565b6003543414610ffd576040517f08c379a0000000000000000000000000000000000000000000000000000000008152600401610ff490611cb3565b60405180910390fd5b6110078282611371565b5050565b60006001600083815260200190815260200160002060009054906101000a900473ffffffffffffffffffffffffffffffffffffffff169050919050565b6000600560008473ffffffffffffffffffffffffffffffffffffffff1673ffffffffffffffffffffffffffffffffffffffff16815260200190815260200160002060008373ffffffffffffffffffffffffffffffffffffffff1673ffffffffffffffffffffffffffffffffffffffff16815260200190815260200160002060009054906101000a900460ff16905092915050565b60606110e66106ba565b905090565b6110f36112a3565b73ffffffffffffffffffffffffffffffffffffffff16611111610e2e565b73ffffffffffffffffffffffffffffffffffffffff1614611167576040517f08c379a000000000000000000000000000000000000000000000000000000000815260040161115e90611df0565b60405180910390fd5b600073ffffffffffffffffffffffffffffffffffffffff168173ffffffffffffffffffffffffffffffffffffffff1614156111d7576040517f08c379a00000000000000000000000000000000000000000000000000000000081526004016111ce90611eb9565b60405180910390fd5b6111e0816112ab565b50565b8173ffffffffffffffffffffffffffffffffffffffff168373ffffffffffffffffffffffffffffffffffffffff167fddf252ad1be2c89b69c2b068fc378daa952ba7f163c4a11628f55a4df523b3ef836040516112409190611925565b60405180910390a3505050565b60008060018361125d9190611ed9565b42443360405160200161127293929190611f76565b6040516020818303038152906040528051906020012060001c6112959190611fe2565b60ff16905080915050919050565b600033905090565b6000600860019054906101000a900473ffffffffffffffffffffffffffffffffffffffff16905081600860016101000a81548173ffffffffffffffffffffffffffffffffffffffff021916908373ffffffffffffffffffffffffffffffffffffffff1602179055508173ffffffffffffffffffffffffffffffffffffffff168173ffffffffffffffffffffffffffffffffffffffff167f8be0079c531659141344cd1fd0a4f28419497f9722a3daafe3b4186f6b6457e060405160405180910390a35050565b8060006001846113819190611ed9565b8154811061139257611391612013565b5b906000526020600020906003020160000190805190602001906113b69291906113f4565b507f8edfa912e70e283a8ef6d6f52cd1faef9690ff989eff2f11a134e8478ba7b28b82826040516113e8929190612042565b60405180910390a15050565b82805461140090611c0f565b90600052602060002090601f0160209004810192826114225760008555611469565b82601f1061143b57805160ff1916838001178555611469565b82800160010185558215611469579182015b8281111561146857825182559160200191906001019061144d565b5b509050611476919061147a565b5090565b5b8082111561149357600081600090555060010161147b565b5090565b600081519050919050565b600082825260208201905092915050565b60005b838110156114d15780820151818401526020810190506114b6565b838111156114e0576000848401525b50505050565b6000601f19601f8301169050919050565b600061150282611497565b61150c81856114a2565b935061151c8185602086016114b3565b611525816114e6565b840191505092915050565b6000602082019050818103600083015261154a81846114f7565b905092915050565b6000604051905090565b600080fd5b600080fd5b6000819050919050565b61157981611566565b811461158457600080fd5b50565b60008135905061159681611570565b92915050565b6000602082840312156115b2576115b161155c565b5b60006115c084828501611587565b91505092915050565b600073ffffffffffffffffffffffffffffffffffffffff82169050919050565b60006115f4826115c9565b9050919050565b611604816115e9565b82525050565b600060208201905061161f60008301846115fb565b92915050565b61162e816115e9565b811461163957600080fd5b50565b60008135905061164b81611625565b92915050565b600080604083850312156116685761166761155c565b5b60006116768582860161163c565b925050602061168785828601611587565b9150509250929050565b600081519050919050565b600082825260208201905092915050565b6000819050602082019050919050565b600082825260208201905092915050565b60006116d982611497565b6116e381856116bd565b93506116f38185602086016114b3565b6116fc816114e6565b840191505092915050565b61171081611566565b82525050565b600060ff82169050919050565b61172c81611716565b82525050565b6000608083016000830151848203600086015261174f82826116ce565b91505060208301516117646020860182611707565b5060408301516117776040860182611723565b50606083015161178a6060860182611723565b508091505092915050565b60006117a18383611732565b905092915050565b6000602082019050919050565b60006117c182611691565b6117cb818561169c565b9350836020820285016117dd856116ad565b8060005b8581101561181957848403895281516117fa8582611795565b9450611805836117a9565b925060208a019950506001810190506117e1565b50829750879550505050505092915050565b6000602082019050818103600083015261184581846117b6565b905092915050565b6000806000606084860312156118665761186561155c565b5b60006118748682870161163c565b93505060206118858682870161163c565b925050604061189686828701611587565b9150509250925092565b6118a981611566565b82525050565b6118b881611716565b82525050565b600060808201905081810360008301526118d881876114f7565b90506118e760208301866118a0565b6118f460408301856118af565b61190160608301846118af565b95945050505050565b600060208201905061191f60008301846118af565b92915050565b600060208201905061193a60008301846118a0565b92915050565b6000602082840312156119565761195561155c565b5b60006119648482850161163c565b91505092915050565b60008115159050919050565b6119828161196d565b811461198d57600080fd5b50565b60008135905061199f81611979565b92915050565b600080604083850312156119bc576119bb61155c565b5b60006119ca8582860161163c565b92505060206119db85828601611990565b9150509250929050565b600080fd5b600080fd5b7f4e487b7100000000000000000000000000000000000000000000000000000000600052604160045260246000fd5b611a27826114e6565b810181811067ffffffffffffffff82111715611a4657611a456119ef565b5b80604052505050565b6000611a59611552565b9050611a658282611a1e565b919050565b600067ffffffffffffffff821115611a8557611a846119ef565b5b611a8e826114e6565b9050602081019050919050565b82818337600083830152505050565b6000611abd611ab884611a6a565b611a4f565b905082815260208101848484011115611ad957611ad86119ea565b5b611ae4848285611a9b565b509392505050565b600082601f830112611b0157611b006119e5565b5b8135611b11848260208601611aaa565b91505092915050565b60008060408385031215611b3157611b3061155c565b5b6000611b3f85828601611587565b925050602083013567ffffffffffffffff811115611b6057611b5f611561565b5b611b6c85828601611aec565b9150509250929050565b60008060408385031215611b8d57611b8c61155c565b5b6000611b9b8582860161163c565b9250506020611bac8582860161163c565b9150509250929050565b611bbf8161196d565b82525050565b6000602082019050611bda6000830184611bb6565b92915050565b7f4e487b7100000000000000000000000000000000000000000000000000000000600052602260045260246000fd5b60006002820490506001821680611c2757607f821691505b60208210811415611c3b57611c3a611be0565b5b50919050565b7f596f7520646f6e74206861766520656e6f7567682066656520666f722074686560008201527f207472616e73616374696f6e0000000000000000000000000000000000000000602082015250565b6000611c9d602c836114a2565b9150611ca882611c41565b604082019050919050565b60006020820190508181036000830152611ccc81611c90565b9050919050565b7f4e487b7100000000000000000000000000000000000000000000000000000000600052601160045260246000fd5b6000611d0d82611566565b9150611d1883611566565b9250827fffffffffffffffffffffffffffffffffffffffffffffffffffffffffffffffff03821115611d4d57611d4c611cd3565b5b828201905092915050565b6000608082019050611d6d60008301876118a0565b8181036020830152611d7f81866114f7565b9050611d8e60408301856118af565b611d9b60608301846118af565b95945050505050565b7f4f776e61626c653a2063616c6c6572206973206e6f7420746865206f776e6572600082015250565b6000611dda6020836114a2565b9150611de582611da4565b602082019050919050565b60006020820190508181036000830152611e0981611dcd565b9050919050565b6000606082019050611e2560008301866115fb565b611e3260208301856115fb565b611e3f6040830184611bb6565b949350505050565b7f4f776e61626c653a206e6577206f776e657220697320746865207a65726f206160008201527f6464726573730000000000000000000000000000000000000000000000000000602082015250565b6000611ea36026836114a2565b9150611eae82611e47565b604082019050919050565b60006020820190508181036000830152611ed281611e96565b9050919050565b6000611ee482611566565b9150611eef83611566565b925082821015611f0257611f01611cd3565b5b828203905092915050565b6000819050919050565b611f28611f2382611566565b611f0d565b82525050565b60008160601b9050919050565b6000611f4682611f2e565b9050919050565b6000611f5882611f3b565b9050919050565b611f70611f6b826115e9565b611f4d565b82525050565b6000611f828286611f17565b602082019150611f928285611f17565b602082019150611fa28284611f5f565b601482019150819050949350505050565b7f4e487b7100000000000000000000000000000000000000000000000000000000600052601260045260246000fd5b6000611fed82611566565b9150611ff883611566565b92508261200857612007611fb3565b5b828206905092915050565b7f4e487b7100000000000000000000000000000000000000000000000000000000600052603260045260246000fd5b600060408201905061205760008301856118a0565b818103602083015261206981846114f7565b9050939250505056fea26469706673582212203330ab6fa4fada2d8b397e52e1ee843c6dc3a7fe10cda46b1bfcabe603c7fa7964736f6c634300080a0033",
  "immutableReferences": {},
  "source": "pragma solidity ^0.8.9;\r\n\r\nimport \"./Fighter.sol\";\r\nimport \"./FighterUtils.sol\";\r\nimport \"./FighterToken.sol\";\r\nimport \"../node_modules/@openzeppelin/contracts/access/Ownable.sol\";\r\n\r\ncontract MainFighter is Fighter, FighterUtils, FighterToken, Ownable{\r\n\r\n    function buyFighter() external payable checkFee {\r\n        uint256 id = generateFighter();\r\n        _transferFrom(address(this), msg.sender, id);\r\n    }\r\n\r\n    function changeName(uint256 _id, string memory _name) external payable checkFee {\r\n        modifyName(_id, _name);\r\n    }\r\n\r\n    function getAllFighters() public view returns(FighterPersonality[] memory){\r\n        return getFighters();\r\n    }\r\n\r\n    function getOwnFighter(uint _id) public view returns(address){\r\n        return getFighterOwner(_id);\r\n    }\r\n\r\n    function getContractBalance() public payable onlyOwner{\r\n        payable(owner()).transfer(address(this).balance);\r\n    }\r\n\r\n}",
  "sourcePath": "C:\\Users\\alber\\Desktop\\nft\\contracts\\MainFighter.sol",
  "compiler": {
    "name": "solc",
    "version": "0.8.10+commit.fc410830.Emscripten.clang"
  },
  "schemaVersion": "3.4.4",
  "updatedAt": "2022-01-31T01:09:33.860Z",
  "networkType": "ethereum",
  "devdoc": {
    "kind": "dev",
    "methods": {
      "owner()": {
        "details": "Returns the address of the current owner."
      },
      "renounceOwnership()": {
        "details": "Leaves the contract without owner. It will not be possible to call `onlyOwner` functions anymore. Can only be called by the current owner. NOTE: Renouncing ownership will leave the contract without an owner, thereby removing any functionality that is only available to the owner."
      },
      "transferOwnership(address)": {
        "details": "Transfers ownership of the contract to a new account (`newOwner`). Can only be called by the current owner."
      }
    },
    "version": 1
  },
  "userdoc": {
    "kind": "user",
    "methods": {},
    "version": 1
  }
}