{
  "contractName": "MLDToken",
  "abi": [
    {
      "inputs": [],
      "stateMutability": "nonpayable",
      "type": "constructor"
    },
    {
      "anonymous": false,
      "inputs": [
        {
          "indexed": true,
          "internalType": "address",
          "name": "owner",
          "type": "address"
        },
        {
          "indexed": true,
          "internalType": "address",
          "name": "spender",
          "type": "address"
        },
        {
          "indexed": false,
          "internalType": "uint256",
          "name": "value",
          "type": "uint256"
        }
      ],
      "name": "Approval",
      "type": "event"
    },
    {
      "anonymous": false,
      "inputs": [
        {
          "indexed": true,
          "internalType": "address",
          "name": "previousOwner",
          "type": "address"
        },
        {
          "indexed": true,
          "internalType": "address",
          "name": "newOwner",
          "type": "address"
        }
      ],
      "name": "OwnershipTransferred",
      "type": "event"
    },
    {
      "anonymous": false,
      "inputs": [
        {
          "indexed": true,
          "internalType": "address",
          "name": "from",
          "type": "address"
        },
        {
          "indexed": true,
          "internalType": "address",
          "name": "to",
          "type": "address"
        },
        {
          "indexed": false,
          "internalType": "uint256",
          "name": "value",
          "type": "uint256"
        }
      ],
      "name": "Transfer",
      "type": "event"
    },
    {
      "inputs": [
        {
          "internalType": "address",
          "name": "owner",
          "type": "address"
        },
        {
          "internalType": "address",
          "name": "spender",
          "type": "address"
        }
      ],
      "name": "allowance",
      "outputs": [
        {
          "internalType": "uint256",
          "name": "",
          "type": "uint256"
        }
      ],
      "stateMutability": "view",
      "type": "function",
      "constant": true
    },
    {
      "inputs": [
        {
          "internalType": "address",
          "name": "spender",
          "type": "address"
        },
        {
          "internalType": "uint256",
          "name": "amount",
          "type": "uint256"
        }
      ],
      "name": "approve",
      "outputs": [
        {
          "internalType": "bool",
          "name": "",
          "type": "bool"
        }
      ],
      "stateMutability": "nonpayable",
      "type": "function"
    },
    {
      "inputs": [
        {
          "internalType": "address",
          "name": "account",
          "type": "address"
        }
      ],
      "name": "balanceOf",
      "outputs": [
        {
          "internalType": "uint256",
          "name": "",
          "type": "uint256"
        }
      ],
      "stateMutability": "view",
      "type": "function",
      "constant": true
    },
    {
      "inputs": [],
      "name": "decimals",
      "outputs": [
        {
          "internalType": "uint8",
          "name": "",
          "type": "uint8"
        }
      ],
      "stateMutability": "view",
      "type": "function",
      "constant": true
    },
    {
      "inputs": [
        {
          "internalType": "address",
          "name": "spender",
          "type": "address"
        },
        {
          "internalType": "uint256",
          "name": "subtractedValue",
          "type": "uint256"
        }
      ],
      "name": "decreaseAllowance",
      "outputs": [
        {
          "internalType": "bool",
          "name": "",
          "type": "bool"
        }
      ],
      "stateMutability": "nonpayable",
      "type": "function"
    },
    {
      "inputs": [
        {
          "internalType": "address",
          "name": "spender",
          "type": "address"
        },
        {
          "internalType": "uint256",
          "name": "addedValue",
          "type": "uint256"
        }
      ],
      "name": "increaseAllowance",
      "outputs": [
        {
          "internalType": "bool",
          "name": "",
          "type": "bool"
        }
      ],
      "stateMutability": "nonpayable",
      "type": "function"
    },
    {
      "inputs": [],
      "name": "name",
      "outputs": [
        {
          "internalType": "string",
          "name": "",
          "type": "string"
        }
      ],
      "stateMutability": "view",
      "type": "function",
      "constant": true
    },
    {
      "inputs": [],
      "name": "owner",
      "outputs": [
        {
          "internalType": "address",
          "name": "",
          "type": "address"
        }
      ],
      "stateMutability": "view",
      "type": "function",
      "constant": true
    },
    {
      "inputs": [],
      "name": "renounceOwnership",
      "outputs": [],
      "stateMutability": "nonpayable",
      "type": "function"
    },
    {
      "inputs": [],
      "name": "symbol",
      "outputs": [
        {
          "internalType": "string",
          "name": "",
          "type": "string"
        }
      ],
      "stateMutability": "view",
      "type": "function",
      "constant": true
    },
    {
      "inputs": [],
      "name": "totalSupply",
      "outputs": [
        {
          "internalType": "uint256",
          "name": "",
          "type": "uint256"
        }
      ],
      "stateMutability": "view",
      "type": "function",
      "constant": true
    },
    {
      "inputs": [
        {
          "internalType": "address",
          "name": "recipient",
          "type": "address"
        },
        {
          "internalType": "uint256",
          "name": "amount",
          "type": "uint256"
        }
      ],
      "name": "transfer",
      "outputs": [
        {
          "internalType": "bool",
          "name": "",
          "type": "bool"
        }
      ],
      "stateMutability": "nonpayable",
      "type": "function"
    },
    {
      "inputs": [
        {
          "internalType": "address",
          "name": "sender",
          "type": "address"
        },
        {
          "internalType": "address",
          "name": "recipient",
          "type": "address"
        },
        {
          "internalType": "uint256",
          "name": "amount",
          "type": "uint256"
        }
      ],
      "name": "transferFrom",
      "outputs": [
        {
          "internalType": "bool",
          "name": "",
          "type": "bool"
        }
      ],
      "stateMutability": "nonpayable",
      "type": "function"
    },
    {
      "inputs": [
        {
          "internalType": "address",
          "name": "newOwner",
          "type": "address"
        }
      ],
      "name": "transferOwnership",
      "outputs": [],
      "stateMutability": "nonpayable",
      "type": "function"
    },
    {
      "inputs": [
        {
          "internalType": "address",
          "name": "_to",
          "type": "address"
        },
        {
          "internalType": "uint256",
          "name": "_amount",
          "type": "uint256"
        }
      ],
      "name": "generateToken",
      "outputs": [],
      "stateMutability": "nonpayable",
      "type": "function"
    }
  ],
  "bytecode": "0x60806040526200001862046cd06200012d60201b60201c565b6006556200002e6127106200012d60201b60201c565b6007553480156200003e57600080fd5b506040518060400160405280600881526020017f4d6f6c6f6e64726f0000000000000000000000000000000000000000000000008152506040518060400160405280600381526020017f4d4c4400000000000000000000000000000000000000000000000000000000008152508160039080519060200190620000c3929190620003bb565b508060049080519060200190620000dc929190620003bb565b505050620000ff620000f36200016160201b60201c565b6200016960201b60201c565b62000113306006546200022f60201b60201c565b62000127336007546200022f60201b60201c565b6200082a565b60006200013f620003a860201b60201c565b600a6200014d919062000605565b826200015a919062000656565b9050919050565b600033905090565b6000600560009054906101000a900473ffffffffffffffffffffffffffffffffffffffff16905081600560006101000a81548173ffffffffffffffffffffffffffffffffffffffff021916908373ffffffffffffffffffffffffffffffffffffffff1602179055508173ffffffffffffffffffffffffffffffffffffffff168173ffffffffffffffffffffffffffffffffffffffff167f8be0079c531659141344cd1fd0a4f28419497f9722a3daafe3b4186f6b6457e060405160405180910390a35050565b600073ffffffffffffffffffffffffffffffffffffffff168273ffffffffffffffffffffffffffffffffffffffff161415620002a2576040517f08c379a0000000000000000000000000000000000000000000000000000000008152600401620002999062000718565b60405180910390fd5b620002b660008383620003b160201b60201c565b8060026000828254620002ca91906200073a565b92505081905550806000808473ffffffffffffffffffffffffffffffffffffffff1673ffffffffffffffffffffffffffffffffffffffff16815260200190815260200160002060008282546200032191906200073a565b925050819055508173ffffffffffffffffffffffffffffffffffffffff16600073ffffffffffffffffffffffffffffffffffffffff167fddf252ad1be2c89b69c2b068fc378daa952ba7f163c4a11628f55a4df523b3ef83604051620003889190620007a8565b60405180910390a3620003a460008383620003b660201b60201c565b5050565b60006012905090565b505050565b505050565b828054620003c990620007f4565b90600052602060002090601f016020900481019282620003ed576000855562000439565b82601f106200040857805160ff191683800117855562000439565b8280016001018555821562000439579182015b82811115620004385782518255916020019190600101906200041b565b5b5090506200044891906200044c565b5090565b5b80821115620004675760008160009055506001016200044d565b5090565b7f4e487b7100000000000000000000000000000000000000000000000000000000600052601160045260246000fd5b60008160011c9050919050565b6000808291508390505b6001851115620004f957808604811115620004d157620004d06200046b565b5b6001851615620004e15780820291505b8081029050620004f1856200049a565b9450620004b1565b94509492505050565b600082620005145760019050620005e7565b81620005245760009050620005e7565b81600181146200053d576002811462000548576200057e565b6001915050620005e7565b60ff8411156200055d576200055c6200046b565b5b8360020a9150848211156200057757620005766200046b565b5b50620005e7565b5060208310610133831016604e8410600b8410161715620005b85782820a905083811115620005b257620005b16200046b565b5b620005e7565b620005c78484846001620004a7565b92509050818404811115620005e157620005e06200046b565b5b81810290505b9392505050565b6000819050919050565b600060ff82169050919050565b60006200061282620005ee565b91506200061f83620005f8565b92506200064e7fffffffffffffffffffffffffffffffffffffffffffffffffffffffffffffffff848462000502565b905092915050565b60006200066382620005ee565b91506200067083620005ee565b9250817fffffffffffffffffffffffffffffffffffffffffffffffffffffffffffffffff0483118215151615620006ac57620006ab6200046b565b5b828202905092915050565b600082825260208201905092915050565b7f45524332303a206d696e7420746f20746865207a65726f206164647265737300600082015250565b600062000700601f83620006b7565b91506200070d82620006c8565b602082019050919050565b600060208201905081810360008301526200073381620006f1565b9050919050565b60006200074782620005ee565b91506200075483620005ee565b9250827fffffffffffffffffffffffffffffffffffffffffffffffffffffffffffffffff038211156200078c576200078b6200046b565b5b828201905092915050565b620007a281620005ee565b82525050565b6000602082019050620007bf600083018462000797565b92915050565b7f4e487b7100000000000000000000000000000000000000000000000000000000600052602260045260246000fd5b600060028204905060018216806200080d57607f821691505b60208210811415620008245762000823620007c5565b5b50919050565b611c52806200083a6000396000f3fe608060405234801561001057600080fd5b50600436106100f55760003560e01c806370a0823111610097578063a457c2d711610066578063a457c2d714610276578063a9059cbb146102a6578063dd62ed3e146102d6578063f2fde38b14610306576100f5565b806370a0823114610200578063715018a6146102305780638da5cb5b1461023a57806395d89b4114610258576100f5565b8063188b5372116100d3578063188b53721461016657806323b872dd14610182578063313ce567146101b257806339509351146101d0576100f5565b806306fdde03146100fa578063095ea7b31461011857806318160ddd14610148575b600080fd5b610102610322565b60405161010f919061117a565b60405180910390f35b610132600480360381019061012d9190611235565b6103b4565b60405161013f9190611290565b60405180910390f35b6101506103d2565b60405161015d91906112ba565b60405180910390f35b610180600480360381019061017b9190611235565b6103dc565b005b61019c600480360381019061019791906112d5565b610474565b6040516101a99190611290565b60405180910390f35b6101ba61056c565b6040516101c79190611344565b60405180910390f35b6101ea60048036038101906101e59190611235565b610575565b6040516101f79190611290565b60405180910390f35b61021a6004803603810190610215919061135f565b610621565b60405161022791906112ba565b60405180910390f35b610238610669565b005b6102426106f1565b60405161024f919061139b565b60405180910390f35b61026061071b565b60405161026d919061117a565b60405180910390f35b610290600480360381019061028b9190611235565b6107ad565b60405161029d9190611290565b60405180910390f35b6102c060048036038101906102bb9190611235565b610898565b6040516102cd9190611290565b60405180910390f35b6102f060048036038101906102eb91906113b6565b6108b6565b6040516102fd91906112ba565b60405180910390f35b610320600480360381019061031b919061135f565b61093d565b005b60606003805461033190611425565b80601f016020809104026020016040519081016040528092919081815260200182805461035d90611425565b80156103aa5780601f1061037f576101008083540402835291602001916103aa565b820191906000526020600020905b81548152906001019060200180831161038d57829003601f168201915b5050505050905090565b60006103c86103c1610a35565b8484610a3d565b6001905092915050565b6000600254905090565b6103e4610a35565b73ffffffffffffffffffffffffffffffffffffffff166104026106f1565b73ffffffffffffffffffffffffffffffffffffffff1614610458576040517f08c379a000000000000000000000000000000000000000000000000000000000815260040161044f906114a3565b60405180910390fd5b600061046382610c08565b905061046f8382610c30565b505050565b6000610481848484610d90565b6000600160008673ffffffffffffffffffffffffffffffffffffffff1673ffffffffffffffffffffffffffffffffffffffff16815260200190815260200160002060006104cc610a35565b73ffffffffffffffffffffffffffffffffffffffff1673ffffffffffffffffffffffffffffffffffffffff1681526020019081526020016000205490508281101561054c576040517f08c379a000000000000000000000000000000000000000000000000000000000815260040161054390611535565b60405180910390fd5b61056085610558610a35565b858403610a3d565b60019150509392505050565b60006012905090565b6000610617610582610a35565b848460016000610590610a35565b73ffffffffffffffffffffffffffffffffffffffff1673ffffffffffffffffffffffffffffffffffffffff16815260200190815260200160002060008873ffffffffffffffffffffffffffffffffffffffff1673ffffffffffffffffffffffffffffffffffffffff168152602001908152602001600020546106129190611584565b610a3d565b6001905092915050565b60008060008373ffffffffffffffffffffffffffffffffffffffff1673ffffffffffffffffffffffffffffffffffffffff168152602001908152602001600020549050919050565b610671610a35565b73ffffffffffffffffffffffffffffffffffffffff1661068f6106f1565b73ffffffffffffffffffffffffffffffffffffffff16146106e5576040517f08c379a00000000000000000000000000000000000000000000000000000000081526004016106dc906114a3565b60405180910390fd5b6106ef6000611011565b565b6000600560009054906101000a900473ffffffffffffffffffffffffffffffffffffffff16905090565b60606004805461072a90611425565b80601f016020809104026020016040519081016040528092919081815260200182805461075690611425565b80156107a35780601f10610778576101008083540402835291602001916107a3565b820191906000526020600020905b81548152906001019060200180831161078657829003601f168201915b5050505050905090565b600080600160006107bc610a35565b73ffffffffffffffffffffffffffffffffffffffff1673ffffffffffffffffffffffffffffffffffffffff16815260200190815260200160002060008573ffffffffffffffffffffffffffffffffffffffff1673ffffffffffffffffffffffffffffffffffffffff16815260200190815260200160002054905082811015610879576040517f08c379a00000000000000000000000000000000000000000000000000000000081526004016108709061164c565b60405180910390fd5b61088d610884610a35565b85858403610a3d565b600191505092915050565b60006108ac6108a5610a35565b8484610d90565b6001905092915050565b6000600160008473ffffffffffffffffffffffffffffffffffffffff1673ffffffffffffffffffffffffffffffffffffffff16815260200190815260200160002060008373ffffffffffffffffffffffffffffffffffffffff1673ffffffffffffffffffffffffffffffffffffffff16815260200190815260200160002054905092915050565b610945610a35565b73ffffffffffffffffffffffffffffffffffffffff166109636106f1565b73ffffffffffffffffffffffffffffffffffffffff16146109b9576040517f08c379a00000000000000000000000000000000000000000000000000000000081526004016109b0906114a3565b60405180910390fd5b600073ffffffffffffffffffffffffffffffffffffffff168173ffffffffffffffffffffffffffffffffffffffff161415610a29576040517f08c379a0000000000000000000000000000000000000000000000000000000008152600401610a20906116de565b60405180910390fd5b610a3281611011565b50565b600033905090565b600073ffffffffffffffffffffffffffffffffffffffff168373ffffffffffffffffffffffffffffffffffffffff161415610aad576040517f08c379a0000000000000000000000000000000000000000000000000000000008152600401610aa490611770565b60405180910390fd5b600073ffffffffffffffffffffffffffffffffffffffff168273ffffffffffffffffffffffffffffffffffffffff161415610b1d576040517f08c379a0000000000000000000000000000000000000000000000000000000008152600401610b1490611802565b60405180910390fd5b80600160008573ffffffffffffffffffffffffffffffffffffffff1673ffffffffffffffffffffffffffffffffffffffff16815260200190815260200160002060008473ffffffffffffffffffffffffffffffffffffffff1673ffffffffffffffffffffffffffffffffffffffff168152602001908152602001600020819055508173ffffffffffffffffffffffffffffffffffffffff168373ffffffffffffffffffffffffffffffffffffffff167f8c5be1e5ebec7d5bd14f71427d1e84f3dd0314c0f7b2291e5b200ac8c7c3b92583604051610bfb91906112ba565b60405180910390a3505050565b6000610c1261056c565b600a610c1e9190611955565b82610c2991906119a0565b9050919050565b600073ffffffffffffffffffffffffffffffffffffffff168273ffffffffffffffffffffffffffffffffffffffff161415610ca0576040517f08c379a0000000000000000000000000000000000000000000000000000000008152600401610c9790611a46565b60405180910390fd5b610cac600083836110d7565b8060026000828254610cbe9190611584565b92505081905550806000808473ffffffffffffffffffffffffffffffffffffffff1673ffffffffffffffffffffffffffffffffffffffff1681526020019081526020016000206000828254610d139190611584565b925050819055508173ffffffffffffffffffffffffffffffffffffffff16600073ffffffffffffffffffffffffffffffffffffffff167fddf252ad1be2c89b69c2b068fc378daa952ba7f163c4a11628f55a4df523b3ef83604051610d7891906112ba565b60405180910390a3610d8c600083836110dc565b5050565b600073ffffffffffffffffffffffffffffffffffffffff168373ffffffffffffffffffffffffffffffffffffffff161415610e00576040517f08c379a0000000000000000000000000000000000000000000000000000000008152600401610df790611ad8565b60405180910390fd5b600073ffffffffffffffffffffffffffffffffffffffff168273ffffffffffffffffffffffffffffffffffffffff161415610e70576040517f08c379a0000000000000000000000000000000000000000000000000000000008152600401610e6790611b6a565b60405180910390fd5b610e7b8383836110d7565b60008060008573ffffffffffffffffffffffffffffffffffffffff1673ffffffffffffffffffffffffffffffffffffffff16815260200190815260200160002054905081811015610f01576040517f08c379a0000000000000000000000000000000000000000000000000000000008152600401610ef890611bfc565b60405180910390fd5b8181036000808673ffffffffffffffffffffffffffffffffffffffff1673ffffffffffffffffffffffffffffffffffffffff16815260200190815260200160002081905550816000808573ffffffffffffffffffffffffffffffffffffffff1673ffffffffffffffffffffffffffffffffffffffff1681526020019081526020016000206000828254610f949190611584565b925050819055508273ffffffffffffffffffffffffffffffffffffffff168473ffffffffffffffffffffffffffffffffffffffff167fddf252ad1be2c89b69c2b068fc378daa952ba7f163c4a11628f55a4df523b3ef84604051610ff891906112ba565b60405180910390a361100b8484846110dc565b50505050565b6000600560009054906101000a900473ffffffffffffffffffffffffffffffffffffffff16905081600560006101000a81548173ffffffffffffffffffffffffffffffffffffffff021916908373ffffffffffffffffffffffffffffffffffffffff1602179055508173ffffffffffffffffffffffffffffffffffffffff168173ffffffffffffffffffffffffffffffffffffffff167f8be0079c531659141344cd1fd0a4f28419497f9722a3daafe3b4186f6b6457e060405160405180910390a35050565b505050565b505050565b600081519050919050565b600082825260208201905092915050565b60005b8381101561111b578082015181840152602081019050611100565b8381111561112a576000848401525b50505050565b6000601f19601f8301169050919050565b600061114c826110e1565b61115681856110ec565b93506111668185602086016110fd565b61116f81611130565b840191505092915050565b600060208201905081810360008301526111948184611141565b905092915050565b600080fd5b600073ffffffffffffffffffffffffffffffffffffffff82169050919050565b60006111cc826111a1565b9050919050565b6111dc816111c1565b81146111e757600080fd5b50565b6000813590506111f9816111d3565b92915050565b6000819050919050565b611212816111ff565b811461121d57600080fd5b50565b60008135905061122f81611209565b92915050565b6000806040838503121561124c5761124b61119c565b5b600061125a858286016111ea565b925050602061126b85828601611220565b9150509250929050565b60008115159050919050565b61128a81611275565b82525050565b60006020820190506112a56000830184611281565b92915050565b6112b4816111ff565b82525050565b60006020820190506112cf60008301846112ab565b92915050565b6000806000606084860312156112ee576112ed61119c565b5b60006112fc868287016111ea565b935050602061130d868287016111ea565b925050604061131e86828701611220565b9150509250925092565b600060ff82169050919050565b61133e81611328565b82525050565b60006020820190506113596000830184611335565b92915050565b6000602082840312156113755761137461119c565b5b6000611383848285016111ea565b91505092915050565b611395816111c1565b82525050565b60006020820190506113b0600083018461138c565b92915050565b600080604083850312156113cd576113cc61119c565b5b60006113db858286016111ea565b92505060206113ec858286016111ea565b9150509250929050565b7f4e487b7100000000000000000000000000000000000000000000000000000000600052602260045260246000fd5b6000600282049050600182168061143d57607f821691505b60208210811415611451576114506113f6565b5b50919050565b7f4f776e61626c653a2063616c6c6572206973206e6f7420746865206f776e6572600082015250565b600061148d6020836110ec565b915061149882611457565b602082019050919050565b600060208201905081810360008301526114bc81611480565b9050919050565b7f45524332303a207472616e7366657220616d6f756e742065786365656473206160008201527f6c6c6f77616e6365000000000000000000000000000000000000000000000000602082015250565b600061151f6028836110ec565b915061152a826114c3565b604082019050919050565b6000602082019050818103600083015261154e81611512565b9050919050565b7f4e487b7100000000000000000000000000000000000000000000000000000000600052601160045260246000fd5b600061158f826111ff565b915061159a836111ff565b9250827fffffffffffffffffffffffffffffffffffffffffffffffffffffffffffffffff038211156115cf576115ce611555565b5b828201905092915050565b7f45524332303a2064656372656173656420616c6c6f77616e63652062656c6f7760008201527f207a65726f000000000000000000000000000000000000000000000000000000602082015250565b60006116366025836110ec565b9150611641826115da565b604082019050919050565b6000602082019050818103600083015261166581611629565b9050919050565b7f4f776e61626c653a206e6577206f776e657220697320746865207a65726f206160008201527f6464726573730000000000000000000000000000000000000000000000000000602082015250565b60006116c86026836110ec565b91506116d38261166c565b604082019050919050565b600060208201905081810360008301526116f7816116bb565b9050919050565b7f45524332303a20617070726f76652066726f6d20746865207a65726f2061646460008201527f7265737300000000000000000000000000000000000000000000000000000000602082015250565b600061175a6024836110ec565b9150611765826116fe565b604082019050919050565b600060208201905081810360008301526117898161174d565b9050919050565b7f45524332303a20617070726f766520746f20746865207a65726f20616464726560008201527f7373000000000000000000000000000000000000000000000000000000000000602082015250565b60006117ec6022836110ec565b91506117f782611790565b604082019050919050565b6000602082019050818103600083015261181b816117df565b9050919050565b60008160011c9050919050565b6000808291508390505b60018511156118795780860481111561185557611854611555565b5b60018516156118645780820291505b808102905061187285611822565b9450611839565b94509492505050565b600082611892576001905061194e565b816118a0576000905061194e565b81600181146118b657600281146118c0576118ef565b600191505061194e565b60ff8411156118d2576118d1611555565b5b8360020a9150848211156118e9576118e8611555565b5b5061194e565b5060208310610133831016604e8410600b84101617156119245782820a90508381111561191f5761191e611555565b5b61194e565b611931848484600161182f565b9250905081840481111561194857611947611555565b5b81810290505b9392505050565b6000611960826111ff565b915061196b83611328565b92506119987fffffffffffffffffffffffffffffffffffffffffffffffffffffffffffffffff8484611882565b905092915050565b60006119ab826111ff565b91506119b6836111ff565b9250817fffffffffffffffffffffffffffffffffffffffffffffffffffffffffffffffff04831182151516156119ef576119ee611555565b5b828202905092915050565b7f45524332303a206d696e7420746f20746865207a65726f206164647265737300600082015250565b6000611a30601f836110ec565b9150611a3b826119fa565b602082019050919050565b60006020820190508181036000830152611a5f81611a23565b9050919050565b7f45524332303a207472616e736665722066726f6d20746865207a65726f20616460008201527f6472657373000000000000000000000000000000000000000000000000000000602082015250565b6000611ac26025836110ec565b9150611acd82611a66565b604082019050919050565b60006020820190508181036000830152611af181611ab5565b9050919050565b7f45524332303a207472616e7366657220746f20746865207a65726f206164647260008201527f6573730000000000000000000000000000000000000000000000000000000000602082015250565b6000611b546023836110ec565b9150611b5f82611af8565b604082019050919050565b60006020820190508181036000830152611b8381611b47565b9050919050565b7f45524332303a207472616e7366657220616d6f756e742065786365656473206260008201527f616c616e63650000000000000000000000000000000000000000000000000000602082015250565b6000611be66026836110ec565b9150611bf182611b8a565b604082019050919050565b60006020820190508181036000830152611c1581611bd9565b905091905056fea2646970667358221220de5831bcc0c784908d9bd34e79b909143c1cf3f329bda39fcd7f1a93b50883ed64736f6c634300080a0033",
  "immutableReferences": {},
  "source": "pragma solidity ^0.8.9;\r\n\r\nimport \"../node_modules/@openzeppelin/contracts/token/ERC20/ERC20.sol\";\r\nimport \"../node_modules/@openzeppelin/contracts/access/Ownable.sol\";\r\n\r\ncontract MLDToken is ERC20, Ownable {\r\n\r\n    uint256 supplyTotal = _convertTokenWithDecimals(290000);\r\n    uint256 supplyInitial = _convertTokenWithDecimals(10000);\r\n\r\n    constructor() ERC20(\"Molondro\", \"MLD\") {\r\n        // This is the total supply that we gonna generate \r\n        // of our token less the initial supply used for the presale\r\n        _mint(address(this), supplyTotal);\r\n        _mint(msg.sender, supplyInitial);\r\n    }\r\n\r\n    function generateToken(address _to, uint256 _amount) public onlyOwner{\r\n        uint256 tokenConverted = _convertTokenWithDecimals(_amount);\r\n        _mint(_to, tokenConverted);\r\n    }\r\n\r\n    function _convertTokenWithDecimals(uint256 _amount) private view returns(uint256) {\r\n        return _amount * 10**decimals();\r\n    }\r\n\r\n}",
  "sourcePath": "C:\\Users\\alber\\Desktop\\nft\\contracts\\MLDToken.sol",
  "compiler": {
    "name": "solc",
    "version": "0.8.10+commit.fc410830.Emscripten.clang"
  },
  "schemaVersion": "3.4.4",
  "updatedAt": "2022-01-30T02:09:43.332Z",
  "networkType": "ethereum",
  "devdoc": {
    "kind": "dev",
    "methods": {
      "allowance(address,address)": {
        "details": "See {IERC20-allowance}."
      },
      "approve(address,uint256)": {
        "details": "See {IERC20-approve}. Requirements: - `spender` cannot be the zero address."
      },
      "balanceOf(address)": {
        "details": "See {IERC20-balanceOf}."
      },
      "decimals()": {
        "details": "Returns the number of decimals used to get its user representation. For example, if `decimals` equals `2`, a balance of `505` tokens should be displayed to a user as `5.05` (`505 / 10 ** 2`). Tokens usually opt for a value of 18, imitating the relationship between Ether and Wei. This is the value {ERC20} uses, unless this function is overridden; NOTE: This information is only used for _display_ purposes: it in no way affects any of the arithmetic of the contract, including {IERC20-balanceOf} and {IERC20-transfer}."
      },
      "decreaseAllowance(address,uint256)": {
        "details": "Atomically decreases the allowance granted to `spender` by the caller. This is an alternative to {approve} that can be used as a mitigation for problems described in {IERC20-approve}. Emits an {Approval} event indicating the updated allowance. Requirements: - `spender` cannot be the zero address. - `spender` must have allowance for the caller of at least `subtractedValue`."
      },
      "increaseAllowance(address,uint256)": {
        "details": "Atomically increases the allowance granted to `spender` by the caller. This is an alternative to {approve} that can be used as a mitigation for problems described in {IERC20-approve}. Emits an {Approval} event indicating the updated allowance. Requirements: - `spender` cannot be the zero address."
      },
      "name()": {
        "details": "Returns the name of the token."
      },
      "owner()": {
        "details": "Returns the address of the current owner."
      },
      "renounceOwnership()": {
        "details": "Leaves the contract without owner. It will not be possible to call `onlyOwner` functions anymore. Can only be called by the current owner. NOTE: Renouncing ownership will leave the contract without an owner, thereby removing any functionality that is only available to the owner."
      },
      "symbol()": {
        "details": "Returns the symbol of the token, usually a shorter version of the name."
      },
      "totalSupply()": {
        "details": "See {IERC20-totalSupply}."
      },
      "transfer(address,uint256)": {
        "details": "See {IERC20-transfer}. Requirements: - `recipient` cannot be the zero address. - the caller must have a balance of at least `amount`."
      },
      "transferFrom(address,address,uint256)": {
        "details": "See {IERC20-transferFrom}. Emits an {Approval} event indicating the updated allowance. This is not required by the EIP. See the note at the beginning of {ERC20}. Requirements: - `sender` and `recipient` cannot be the zero address. - `sender` must have a balance of at least `amount`. - the caller must have allowance for ``sender``'s tokens of at least `amount`."
      },
      "transferOwnership(address)": {
        "details": "Transfers ownership of the contract to a new account (`newOwner`). Can only be called by the current owner."
      }
    },
    "version": 1
  },
  "userdoc": {
    "kind": "user",
    "methods": {},
    "version": 1
  }
}