{
  "contractName": "Fighter",
  "abi": [
    {
      "anonymous": false,
      "inputs": [
        {
          "indexed": false,
          "internalType": "uint256",
          "name": "id",
          "type": "uint256"
        },
        {
          "indexed": false,
          "internalType": "string",
          "name": "name",
          "type": "string"
        },
        {
          "indexed": false,
          "internalType": "uint8",
          "name": "dmg",
          "type": "uint8"
        },
        {
          "indexed": false,
          "internalType": "uint8",
          "name": "speed",
          "type": "uint8"
        }
      ],
      "name": "FighterGenerated",
      "type": "event"
    },
    {
      "anonymous": false,
      "inputs": [
        {
          "indexed": false,
          "internalType": "uint256",
          "name": "id",
          "type": "uint256"
        },
        {
          "indexed": false,
          "internalType": "string",
          "name": "name",
          "type": "string"
        }
      ],
      "name": "NameChanged",
      "type": "event"
    },
    {
      "inputs": [
        {
          "internalType": "uint256",
          "name": "",
          "type": "uint256"
        }
      ],
      "name": "fighters",
      "outputs": [
        {
          "internalType": "string",
          "name": "name",
          "type": "string"
        },
        {
          "internalType": "uint256",
          "name": "id",
          "type": "uint256"
        },
        {
          "internalType": "uint8",
          "name": "dmg",
          "type": "uint8"
        },
        {
          "internalType": "uint8",
          "name": "speed",
          "type": "uint8"
        }
      ],
      "stateMutability": "view",
      "type": "function",
      "constant": true
    },
    {
      "inputs": [],
      "name": "generateFighter",
      "outputs": [
        {
          "internalType": "uint256",
          "name": "",
          "type": "uint256"
        }
      ],
      "stateMutability": "nonpayable",
      "type": "function"
    },
    {
      "inputs": [],
      "name": "getFighters",
      "outputs": [
        {
          "components": [
            {
              "internalType": "string",
              "name": "name",
              "type": "string"
            },
            {
              "internalType": "uint256",
              "name": "id",
              "type": "uint256"
            },
            {
              "internalType": "uint8",
              "name": "dmg",
              "type": "uint8"
            },
            {
              "internalType": "uint8",
              "name": "speed",
              "type": "uint8"
            }
          ],
          "internalType": "struct Fighter.FighterPersonality[]",
          "name": "",
          "type": "tuple[]"
        }
      ],
      "stateMutability": "view",
      "type": "function",
      "constant": true
    },
    {
      "inputs": [
        {
          "internalType": "uint256",
          "name": "_id",
          "type": "uint256"
        }
      ],
      "name": "getFighterOwner",
      "outputs": [
        {
          "internalType": "address",
          "name": "",
          "type": "address"
        }
      ],
      "stateMutability": "view",
      "type": "function",
      "constant": true
    }
  ],
  "bytecode": "0x608060405234801561001057600080fd5b50610ca6806100206000396000f3fe608060405234801561001057600080fd5b506004361061004c5760003560e01c806309b0b1b2146100515780632e6b221d1461006f57806344c672b8146100a2578063c4de8c2e146100c0575b600080fd5b6100596100f0565b6040516100669190610859565b60405180910390f35b610089600480360381019061008491906108ac565b610225565b6040516100999493929190610941565b60405180910390f35b6100aa610307565b6040516100b7919061098d565b60405180910390f35b6100da60048036038101906100d591906108ac565b610530565b6040516100e791906109e9565b60405180910390f35b60606000805480602002602001604051908101604052809291908181526020016000905b8282101561021c578382906000526020600020906003020160405180608001604052908160008201805461014790610a33565b80601f016020809104026020016040519081016040528092919081815260200182805461017390610a33565b80156101c05780601f10610195576101008083540402835291602001916101c0565b820191906000526020600020905b8154815290600101906020018083116101a357829003601f168201915b50505050508152602001600182015481526020016002820160009054906101000a900460ff1660ff1660ff1681526020016002820160019054906101000a900460ff1660ff1660ff168152505081526020019060010190610114565b50505050905090565b6000818154811061023557600080fd5b906000526020600020906003020160009150905080600001805461025890610a33565b80601f016020809104026020016040519081016040528092919081815260200182805461028490610a33565b80156102d15780601f106102a6576101008083540402835291602001916102d1565b820191906000526020600020905b8154815290600101906020018083116102b457829003601f168201915b5050505050908060010154908060020160009054906101000a900460ff16908060020160019054906101000a900460ff16905084565b600080600160008054905061031c9190610a94565b9050600061032a60f961056d565b90506000610338606361056d565b905060006040518060400160405280600481526020017f74657374000000000000000000000000000000000000000000000000000000008152509050600060405180608001604052808381526020018681526020018560ff1681526020018460ff16815250908060018154018082558091505060019003906000526020600020906003020160009091909190915060008201518160000190805190602001906103e29291906105c3565b506020820151816001015560408201518160020160006101000a81548160ff021916908360ff16021790555060608201518160020160016101000a81548160ff021916908360ff1602179055505050600260003373ffffffffffffffffffffffffffffffffffffffff1673ffffffffffffffffffffffffffffffffffffffff168152602001908152602001600020849080600181540180825580915050600190039060005260206000200160009091909190915055336001600086815260200190815260200160002060006101000a81548173ffffffffffffffffffffffffffffffffffffffff021916908373ffffffffffffffffffffffffffffffffffffffff1602179055507feafef9ee2dad9981839e802168c9af2fe10a139d5806540d9d3e7602c0e33d348482858560405161051e9493929190610aea565b60405180910390a18394505050505090565b60006001600083815260200190815260200160002060009054906101000a900473ffffffffffffffffffffffffffffffffffffffff169050919050565b60008060018361057d9190610b36565b42443360405160200161059293929190610bd3565b6040516020818303038152906040528051906020012060001c6105b59190610c3f565b60ff16905080915050919050565b8280546105cf90610a33565b90600052602060002090601f0160209004810192826105f15760008555610638565b82601f1061060a57805160ff1916838001178555610638565b82800160010185558215610638579182015b8281111561063757825182559160200191906001019061061c565b5b5090506106459190610649565b5090565b5b8082111561066257600081600090555060010161064a565b5090565b600081519050919050565b600082825260208201905092915050565b6000819050602082019050919050565b600081519050919050565b600082825260208201905092915050565b60005b838110156106cc5780820151818401526020810190506106b1565b838111156106db576000848401525b50505050565b6000601f19601f8301169050919050565b60006106fd82610692565b610707818561069d565b93506107178185602086016106ae565b610720816106e1565b840191505092915050565b6000819050919050565b61073e8161072b565b82525050565b600060ff82169050919050565b61075a81610744565b82525050565b6000608083016000830151848203600086015261077d82826106f2565b91505060208301516107926020860182610735565b5060408301516107a56040860182610751565b5060608301516107b86060860182610751565b508091505092915050565b60006107cf8383610760565b905092915050565b6000602082019050919050565b60006107ef82610666565b6107f98185610671565b93508360208202850161080b85610682565b8060005b85811015610847578484038952815161082885826107c3565b9450610833836107d7565b925060208a0199505060018101905061080f565b50829750879550505050505092915050565b6000602082019050818103600083015261087381846107e4565b905092915050565b600080fd5b6108898161072b565b811461089457600080fd5b50565b6000813590506108a681610880565b92915050565b6000602082840312156108c2576108c161087b565b5b60006108d084828501610897565b91505092915050565b600082825260208201905092915050565b60006108f582610692565b6108ff81856108d9565b935061090f8185602086016106ae565b610918816106e1565b840191505092915050565b61092c8161072b565b82525050565b61093b81610744565b82525050565b6000608082019050818103600083015261095b81876108ea565b905061096a6020830186610923565b6109776040830185610932565b6109846060830184610932565b95945050505050565b60006020820190506109a26000830184610923565b92915050565b600073ffffffffffffffffffffffffffffffffffffffff82169050919050565b60006109d3826109a8565b9050919050565b6109e3816109c8565b82525050565b60006020820190506109fe60008301846109da565b92915050565b7f4e487b7100000000000000000000000000000000000000000000000000000000600052602260045260246000fd5b60006002820490506001821680610a4b57607f821691505b60208210811415610a5f57610a5e610a04565b5b50919050565b7f4e487b7100000000000000000000000000000000000000000000000000000000600052601160045260246000fd5b6000610a9f8261072b565b9150610aaa8361072b565b9250827fffffffffffffffffffffffffffffffffffffffffffffffffffffffffffffffff03821115610adf57610ade610a65565b5b828201905092915050565b6000608082019050610aff6000830187610923565b8181036020830152610b1181866108ea565b9050610b206040830185610932565b610b2d6060830184610932565b95945050505050565b6000610b418261072b565b9150610b4c8361072b565b925082821015610b5f57610b5e610a65565b5b828203905092915050565b6000819050919050565b610b85610b808261072b565b610b6a565b82525050565b60008160601b9050919050565b6000610ba382610b8b565b9050919050565b6000610bb582610b98565b9050919050565b610bcd610bc8826109c8565b610baa565b82525050565b6000610bdf8286610b74565b602082019150610bef8285610b74565b602082019150610bff8284610bbc565b601482019150819050949350505050565b7f4e487b7100000000000000000000000000000000000000000000000000000000600052601260045260246000fd5b6000610c4a8261072b565b9150610c558361072b565b925082610c6557610c64610c10565b5b82820690509291505056fea26469706673582212201c3429c8094b4af486f3b64e4ca4e5c3a76096994e8e97eaa306fc18518d0ca664736f6c634300080a0033",
  "immutableReferences": {},
  "source": "pragma solidity ^0.8.9;\r\n\r\nimport \"@openzeppelin/contracts/utils/Strings.sol\";\r\n\r\n\r\ncontract Fighter{\r\n\r\n    event FighterGenerated(uint id, string name, uint8 dmg, uint8 speed);\r\n    event NameChanged(uint id, string name);\r\n\r\n    struct FighterPersonality {\r\n        string name;\r\n        uint id;\r\n        uint8 dmg;\r\n        uint8 speed;\r\n    }\r\n\r\n    FighterPersonality[] public fighters;\r\n\r\n    mapping (uint => address) fighterOwner;\r\n    mapping (address => uint[]) ownerFighters;\r\n\r\n    function generateFighter() public returns(uint256){ // TODO cambiarla de public a internal\r\n        uint id = fighters.length + 1;\r\n        uint8 dmg = uint8(generateRandomNumber(249));\r\n        uint8 speed = uint8(generateRandomNumber(99));\r\n        string memory name = \"test\"; // Strings.toString(id); Tiene un coste por lo tanto habria que realizar el pago para poder usarlo\r\n        fighters.push(FighterPersonality(name, id, dmg, speed));\r\n        ownerFighters[msg.sender].push(id);\r\n        fighterOwner[id] = msg.sender;\r\n        emit FighterGenerated(id, name, dmg, speed);\r\n        return id;\r\n    }\r\n    \r\n    function generateRandomNumber(uint _max) private view returns (uint) {\r\n        uint result = uint8(\r\n            uint256(\r\n                keccak256(\r\n                    abi.encodePacked(\r\n                        block.timestamp,\r\n                        block.difficulty,\r\n                        msg.sender\r\n                    )\r\n                )\r\n            ) % (_max - 1)\r\n        );\r\n        return result;\r\n    }\r\n\r\n    function modifyName(uint256 _id, string memory _newName) internal {\r\n        fighters[_id-1].name = _newName;\r\n        emit NameChanged(_id, _newName);\r\n    }\r\n\r\n    function getFighters() public view returns(FighterPersonality[] memory) { // TODO Esta funcion no debe existir\r\n        return fighters;\r\n    }\r\n\r\n    function getFighterOwner(uint _id) public view returns(address) { // TODO Esta funcion no debe existir\r\n        return fighterOwner[_id];\r\n    }\r\n}",
  "sourcePath": "C:\\Users\\alber\\Desktop\\nft\\contracts\\Fighter.sol",
  "compiler": {
    "name": "solc",
    "version": "0.8.10+commit.fc410830.Emscripten.clang"
  },
  "schemaVersion": "3.4.4",
  "updatedAt": "2022-01-31T19:39:14.390Z",
  "networkType": "ethereum",
  "devdoc": {
    "kind": "dev",
    "methods": {},
    "version": 1
  },
  "userdoc": {
    "kind": "user",
    "methods": {},
    "version": 1
  }
}