{
  "contractName": "FighterToken",
  "abi": [
    {
      "inputs": [],
      "stateMutability": "nonpayable",
      "type": "constructor"
    },
    {
      "anonymous": false,
      "inputs": [
        {
          "indexed": true,
          "internalType": "address",
          "name": "_owner",
          "type": "address"
        },
        {
          "indexed": true,
          "internalType": "address",
          "name": "_approved",
          "type": "address"
        },
        {
          "indexed": false,
          "internalType": "uint256",
          "name": "_tokenId",
          "type": "uint256"
        }
      ],
      "name": "Approval",
      "type": "event"
    },
    {
      "anonymous": false,
      "inputs": [
        {
          "indexed": false,
          "internalType": "address",
          "name": "_owner",
          "type": "address"
        },
        {
          "indexed": false,
          "internalType": "address",
          "name": "_operator",
          "type": "address"
        },
        {
          "indexed": false,
          "internalType": "bool",
          "name": "_approved",
          "type": "bool"
        }
      ],
      "name": "ApprovalForAll",
      "type": "event"
    },
    {
      "anonymous": false,
      "inputs": [
        {
          "indexed": false,
          "internalType": "uint256",
          "name": "id",
          "type": "uint256"
        },
        {
          "indexed": false,
          "internalType": "string",
          "name": "name",
          "type": "string"
        },
        {
          "indexed": false,
          "internalType": "uint8",
          "name": "dmg",
          "type": "uint8"
        },
        {
          "indexed": false,
          "internalType": "uint8",
          "name": "speed",
          "type": "uint8"
        }
      ],
      "name": "FighterGenerated",
      "type": "event"
    },
    {
      "anonymous": false,
      "inputs": [
        {
          "indexed": false,
          "internalType": "uint256",
          "name": "id",
          "type": "uint256"
        },
        {
          "indexed": false,
          "internalType": "string",
          "name": "name",
          "type": "string"
        }
      ],
      "name": "NameChanged",
      "type": "event"
    },
    {
      "anonymous": false,
      "inputs": [
        {
          "indexed": true,
          "internalType": "address",
          "name": "_from",
          "type": "address"
        },
        {
          "indexed": true,
          "internalType": "address",
          "name": "_to",
          "type": "address"
        },
        {
          "indexed": false,
          "internalType": "uint256",
          "name": "_tokenId",
          "type": "uint256"
        }
      ],
      "name": "Transfer",
      "type": "event"
    },
    {
      "inputs": [],
      "name": "decimals",
      "outputs": [
        {
          "internalType": "uint8",
          "name": "",
          "type": "uint8"
        }
      ],
      "stateMutability": "view",
      "type": "function"
    },
    {
      "inputs": [
        {
          "internalType": "uint256",
          "name": "",
          "type": "uint256"
        }
      ],
      "name": "fighters",
      "outputs": [
        {
          "internalType": "string",
          "name": "name",
          "type": "string"
        },
        {
          "internalType": "uint256",
          "name": "id",
          "type": "uint256"
        },
        {
          "internalType": "uint8",
          "name": "dmg",
          "type": "uint8"
        },
        {
          "internalType": "uint8",
          "name": "speed",
          "type": "uint8"
        }
      ],
      "stateMutability": "view",
      "type": "function"
    },
    {
      "inputs": [],
      "name": "generateFighter",
      "outputs": [
        {
          "internalType": "uint256",
          "name": "",
          "type": "uint256"
        }
      ],
      "stateMutability": "nonpayable",
      "type": "function"
    },
    {
      "inputs": [
        {
          "internalType": "uint256",
          "name": "_id",
          "type": "uint256"
        }
      ],
      "name": "getFighterOwner",
      "outputs": [
        {
          "internalType": "address",
          "name": "",
          "type": "address"
        }
      ],
      "stateMutability": "view",
      "type": "function"
    },
    {
      "inputs": [],
      "name": "getFighters",
      "outputs": [
        {
          "components": [
            {
              "internalType": "string",
              "name": "name",
              "type": "string"
            },
            {
              "internalType": "uint256",
              "name": "id",
              "type": "uint256"
            },
            {
              "internalType": "uint8",
              "name": "dmg",
              "type": "uint8"
            },
            {
              "internalType": "uint8",
              "name": "speed",
              "type": "uint8"
            }
          ],
          "internalType": "struct Fighter.FighterPersonality[]",
          "name": "",
          "type": "tuple[]"
        }
      ],
      "stateMutability": "view",
      "type": "function"
    },
    {
      "inputs": [],
      "name": "name",
      "outputs": [
        {
          "internalType": "string",
          "name": "",
          "type": "string"
        }
      ],
      "stateMutability": "view",
      "type": "function"
    },
    {
      "inputs": [],
      "name": "symbol",
      "outputs": [
        {
          "internalType": "string",
          "name": "",
          "type": "string"
        }
      ],
      "stateMutability": "view",
      "type": "function"
    },
    {
      "inputs": [
        {
          "internalType": "address",
          "name": "_owner",
          "type": "address"
        }
      ],
      "name": "balanceOf",
      "outputs": [
        {
          "internalType": "uint256",
          "name": "",
          "type": "uint256"
        }
      ],
      "stateMutability": "view",
      "type": "function"
    },
    {
      "inputs": [
        {
          "internalType": "uint256",
          "name": "_tokenId",
          "type": "uint256"
        }
      ],
      "name": "ownerOf",
      "outputs": [
        {
          "internalType": "address",
          "name": "",
          "type": "address"
        }
      ],
      "stateMutability": "view",
      "type": "function"
    },
    {
      "inputs": [
        {
          "internalType": "address",
          "name": "_from",
          "type": "address"
        },
        {
          "internalType": "address",
          "name": "_to",
          "type": "address"
        },
        {
          "internalType": "uint256",
          "name": "_tokenId",
          "type": "uint256"
        }
      ],
      "name": "safeTransferFrom",
      "outputs": [],
      "stateMutability": "nonpayable",
      "type": "function"
    },
    {
      "inputs": [
        {
          "internalType": "address",
          "name": "_from",
          "type": "address"
        },
        {
          "internalType": "address",
          "name": "_to",
          "type": "address"
        },
        {
          "internalType": "uint256",
          "name": "_tokenId",
          "type": "uint256"
        }
      ],
      "name": "transferFrom",
      "outputs": [],
      "stateMutability": "nonpayable",
      "type": "function"
    },
    {
      "inputs": [
        {
          "internalType": "address",
          "name": "_to",
          "type": "address"
        },
        {
          "internalType": "uint256",
          "name": "_tokenId",
          "type": "uint256"
        }
      ],
      "name": "approve",
      "outputs": [],
      "stateMutability": "nonpayable",
      "type": "function"
    },
    {
      "inputs": [
        {
          "internalType": "uint256",
          "name": "_tokenId",
          "type": "uint256"
        }
      ],
      "name": "getApproved",
      "outputs": [
        {
          "internalType": "address",
          "name": "",
          "type": "address"
        }
      ],
      "stateMutability": "view",
      "type": "function"
    },
    {
      "inputs": [
        {
          "internalType": "address",
          "name": "operator",
          "type": "address"
        },
        {
          "internalType": "bool",
          "name": "_approved",
          "type": "bool"
        }
      ],
      "name": "setApprovalForAll",
      "outputs": [],
      "stateMutability": "nonpayable",
      "type": "function"
    },
    {
      "inputs": [
        {
          "internalType": "address",
          "name": "owner",
          "type": "address"
        },
        {
          "internalType": "address",
          "name": "operator",
          "type": "address"
        }
      ],
      "name": "isApprovedForAll",
      "outputs": [
        {
          "internalType": "bool",
          "name": "",
          "type": "bool"
        }
      ],
      "stateMutability": "view",
      "type": "function"
    }
  ],
  "bytecode": "0x60806040523480156200001157600080fd5b506040518060400160405280600781526020017f4669676874657200000000000000000000000000000000000000000000000000815250600690805190602001906200005f929190620000d0565b506040518060400160405280600281526020017f465400000000000000000000000000000000000000000000000000000000000081525060059080519060200190620000ad929190620000d0565b506000600760006101000a81548160ff021916908360ff160217905550620001e5565b828054620000de90620001af565b90600052602060002090601f0160209004810192826200010257600085556200014e565b82601f106200011d57805160ff19168380011785556200014e565b828001600101855582156200014e579182015b828111156200014d57825182559160200191906001019062000130565b5b5090506200015d919062000161565b5090565b5b808211156200017c57600081600090555060010162000162565b5090565b7f4e487b7100000000000000000000000000000000000000000000000000000000600052602260045260246000fd5b60006002820490506001821680620001c857607f821691505b60208210811415620001df57620001de62000180565b5b50919050565b61160680620001f56000396000f3fe608060405234801561001057600080fd5b50600436106100f55760003560e01c806342842e0e1161009757806395d89b411161006657806395d89b4114610289578063a22cb465146102a7578063c4de8c2e146102c3578063e985e9c5146102f3576100f5565b806342842e0e146101ef57806344c672b81461020b5780636352211e1461022957806370a0823114610259576100f5565b806309b0b1b2116100d357806309b0b1b21461016457806323b872dd146101825780632e6b221d1461019e578063313ce567146101d1576100f5565b806306fdde03146100fa578063081812fc14610118578063095ea7b314610148575b600080fd5b610102610323565b60405161010f9190610e1d565b60405180910390f35b610132600480360381019061012d9190610e7a565b6103b1565b60405161013f9190610ee8565b60405180910390f35b610162600480360381019061015d9190610f2f565b6103ee565b005b61016c6104a9565b6040516101799190611109565b60405180910390f35b61019c6004803603810190610197919061112b565b6105de565b005b6101b860048036038101906101b39190610e7a565b610648565b6040516101c8949392919061119c565b60405180910390f35b6101d961072a565b6040516101e691906111e8565b60405180910390f35b6102096004803603810190610204919061112b565b61073d565b005b6102136107a7565b6040516102209190611203565b60405180910390f35b610243600480360381019061023e9190610e7a565b6109d0565b6040516102509190610ee8565b60405180910390f35b610273600480360381019061026e919061121e565b610a0d565b6040516102809190611203565b60405180910390f35b610291610a59565b60405161029e9190610e1d565b60405180910390f35b6102c160048036038101906102bc9190611283565b610ae7565b005b6102dd60048036038101906102d89190610e7a565b610bba565b6040516102ea9190610ee8565b60405180910390f35b61030d600480360381019061030891906112c3565b610bf7565b60405161031a9190611312565b60405180910390f35b600680546103309061135c565b80601f016020809104026020016040519081016040528092919081815260200182805461035c9061135c565b80156103a95780601f1061037e576101008083540402835291602001916103a9565b820191906000526020600020905b81548152906001019060200180831161038c57829003601f168201915b505050505081565b60006003600083815260200190815260200160002060009054906101000a900473ffffffffffffffffffffffffffffffffffffffff169050919050565b816003600083815260200190815260200160002060006101000a81548173ffffffffffffffffffffffffffffffffffffffff021916908373ffffffffffffffffffffffffffffffffffffffff1602179055508173ffffffffffffffffffffffffffffffffffffffff163373ffffffffffffffffffffffffffffffffffffffff167f8c5be1e5ebec7d5bd14f71427d1e84f3dd0314c0f7b2291e5b200ac8c7c3b9258360405161049d9190611203565b60405180910390a35050565b60606000805480602002602001604051908101604052809291908181526020016000905b828210156105d557838290600052602060002090600302016040518060800160405290816000820180546105009061135c565b80601f016020809104026020016040519081016040528092919081815260200182805461052c9061135c565b80156105795780601f1061054e57610100808354040283529160200191610579565b820191906000526020600020905b81548152906001019060200180831161055c57829003601f168201915b50505050508152602001600182015481526020016002820160009054906101000a900460ff1660ff1660ff1681526020016002820160019054906101000a900460ff1660ff1660ff1681525050815260200190600101906104cd565b50505050905090565b8173ffffffffffffffffffffffffffffffffffffffff168373ffffffffffffffffffffffffffffffffffffffff167fddf252ad1be2c89b69c2b068fc378daa952ba7f163c4a11628f55a4df523b3ef8360405161063b9190611203565b60405180910390a3505050565b6000818154811061065857600080fd5b906000526020600020906003020160009150905080600001805461067b9061135c565b80601f01602080910402602001604051908101604052809291908181526020018280546106a79061135c565b80156106f45780601f106106c9576101008083540402835291602001916106f4565b820191906000526020600020905b8154815290600101906020018083116106d757829003601f168201915b5050505050908060010154908060020160009054906101000a900460ff16908060020160019054906101000a900460ff16905084565b600760009054906101000a900460ff1681565b8173ffffffffffffffffffffffffffffffffffffffff168373ffffffffffffffffffffffffffffffffffffffff167fddf252ad1be2c89b69c2b068fc378daa952ba7f163c4a11628f55a4df523b3ef8360405161079a9190611203565b60405180910390a3505050565b60008060016000805490506107bc91906113bd565b905060006107ca60f9610c8b565b905060006107d86063610c8b565b905060006040518060400160405280600481526020017f74657374000000000000000000000000000000000000000000000000000000008152509050600060405180608001604052808381526020018681526020018560ff1681526020018460ff1681525090806001815401808255809150506001900390600052602060002090600302016000909190919091506000820151816000019080519060200190610882929190610ce1565b506020820151816001015560408201518160020160006101000a81548160ff021916908360ff16021790555060608201518160020160016101000a81548160ff021916908360ff1602179055505050600260003373ffffffffffffffffffffffffffffffffffffffff1673ffffffffffffffffffffffffffffffffffffffff168152602001908152602001600020849080600181540180825580915050600190039060005260206000200160009091909190915055336001600086815260200190815260200160002060006101000a81548173ffffffffffffffffffffffffffffffffffffffff021916908373ffffffffffffffffffffffffffffffffffffffff1602179055507feafef9ee2dad9981839e802168c9af2fe10a139d5806540d9d3e7602c0e33d34848285856040516109be9493929190611413565b60405180910390a18394505050505090565b60006001600083815260200190815260200160002060009054906101000a900473ffffffffffffffffffffffffffffffffffffffff169050919050565b6000600260008373ffffffffffffffffffffffffffffffffffffffff1673ffffffffffffffffffffffffffffffffffffffff168152602001908152602001600020805490509050919050565b60058054610a669061135c565b80601f0160208091040260200160405190810160405280929190818152602001828054610a929061135c565b8015610adf5780601f10610ab457610100808354040283529160200191610adf565b820191906000526020600020905b815481529060010190602001808311610ac257829003601f168201915b505050505081565b80600460003373ffffffffffffffffffffffffffffffffffffffff1673ffffffffffffffffffffffffffffffffffffffff16815260200190815260200160002060008473ffffffffffffffffffffffffffffffffffffffff1673ffffffffffffffffffffffffffffffffffffffff16815260200190815260200160002060006101000a81548160ff0219169083151502179055507f17307eab39ab6107e8899845ad3d59bd9653f200f220920489ca2b5937696c31338383604051610bae9392919061145f565b60405180910390a15050565b60006001600083815260200190815260200160002060009054906101000a900473ffffffffffffffffffffffffffffffffffffffff169050919050565b6000600460008473ffffffffffffffffffffffffffffffffffffffff1673ffffffffffffffffffffffffffffffffffffffff16815260200190815260200160002060008373ffffffffffffffffffffffffffffffffffffffff1673ffffffffffffffffffffffffffffffffffffffff16815260200190815260200160002060009054906101000a900460ff16905092915050565b600080600183610c9b9190611496565b424433604051602001610cb093929190611533565b6040516020818303038152906040528051906020012060001c610cd3919061159f565b60ff16905080915050919050565b828054610ced9061135c565b90600052602060002090601f016020900481019282610d0f5760008555610d56565b82601f10610d2857805160ff1916838001178555610d56565b82800160010185558215610d56579182015b82811115610d55578251825591602001919060010190610d3a565b5b509050610d639190610d67565b5090565b5b80821115610d80576000816000905550600101610d68565b5090565b600081519050919050565b600082825260208201905092915050565b60005b83811015610dbe578082015181840152602081019050610da3565b83811115610dcd576000848401525b50505050565b6000601f19601f8301169050919050565b6000610def82610d84565b610df98185610d8f565b9350610e09818560208601610da0565b610e1281610dd3565b840191505092915050565b60006020820190508181036000830152610e378184610de4565b905092915050565b600080fd5b6000819050919050565b610e5781610e44565b8114610e6257600080fd5b50565b600081359050610e7481610e4e565b92915050565b600060208284031215610e9057610e8f610e3f565b5b6000610e9e84828501610e65565b91505092915050565b600073ffffffffffffffffffffffffffffffffffffffff82169050919050565b6000610ed282610ea7565b9050919050565b610ee281610ec7565b82525050565b6000602082019050610efd6000830184610ed9565b92915050565b610f0c81610ec7565b8114610f1757600080fd5b50565b600081359050610f2981610f03565b92915050565b60008060408385031215610f4657610f45610e3f565b5b6000610f5485828601610f1a565b9250506020610f6585828601610e65565b9150509250929050565b600081519050919050565b600082825260208201905092915050565b6000819050602082019050919050565b600082825260208201905092915050565b6000610fb782610d84565b610fc18185610f9b565b9350610fd1818560208601610da0565b610fda81610dd3565b840191505092915050565b610fee81610e44565b82525050565b600060ff82169050919050565b61100a81610ff4565b82525050565b6000608083016000830151848203600086015261102d8282610fac565b91505060208301516110426020860182610fe5565b5060408301516110556040860182611001565b5060608301516110686060860182611001565b508091505092915050565b600061107f8383611010565b905092915050565b6000602082019050919050565b600061109f82610f6f565b6110a98185610f7a565b9350836020820285016110bb85610f8b565b8060005b858110156110f757848403895281516110d88582611073565b94506110e383611087565b925060208a019950506001810190506110bf565b50829750879550505050505092915050565b600060208201905081810360008301526111238184611094565b905092915050565b60008060006060848603121561114457611143610e3f565b5b600061115286828701610f1a565b935050602061116386828701610f1a565b925050604061117486828701610e65565b9150509250925092565b61118781610e44565b82525050565b61119681610ff4565b82525050565b600060808201905081810360008301526111b68187610de4565b90506111c5602083018661117e565b6111d2604083018561118d565b6111df606083018461118d565b95945050505050565b60006020820190506111fd600083018461118d565b92915050565b6000602082019050611218600083018461117e565b92915050565b60006020828403121561123457611233610e3f565b5b600061124284828501610f1a565b91505092915050565b60008115159050919050565b6112608161124b565b811461126b57600080fd5b50565b60008135905061127d81611257565b92915050565b6000806040838503121561129a57611299610e3f565b5b60006112a885828601610f1a565b92505060206112b98582860161126e565b9150509250929050565b600080604083850312156112da576112d9610e3f565b5b60006112e885828601610f1a565b92505060206112f985828601610f1a565b9150509250929050565b61130c8161124b565b82525050565b60006020820190506113276000830184611303565b92915050565b7f4e487b7100000000000000000000000000000000000000000000000000000000600052602260045260246000fd5b6000600282049050600182168061137457607f821691505b602082108114156113885761138761132d565b5b50919050565b7f4e487b7100000000000000000000000000000000000000000000000000000000600052601160045260246000fd5b60006113c882610e44565b91506113d383610e44565b9250827fffffffffffffffffffffffffffffffffffffffffffffffffffffffffffffffff038211156114085761140761138e565b5b828201905092915050565b6000608082019050611428600083018761117e565b818103602083015261143a8186610de4565b9050611449604083018561118d565b611456606083018461118d565b95945050505050565b60006060820190506114746000830186610ed9565b6114816020830185610ed9565b61148e6040830184611303565b949350505050565b60006114a182610e44565b91506114ac83610e44565b9250828210156114bf576114be61138e565b5b828203905092915050565b6000819050919050565b6114e56114e082610e44565b6114ca565b82525050565b60008160601b9050919050565b6000611503826114eb565b9050919050565b6000611515826114f8565b9050919050565b61152d61152882610ec7565b61150a565b82525050565b600061153f82866114d4565b60208201915061154f82856114d4565b60208201915061155f828461151c565b601482019150819050949350505050565b7f4e487b7100000000000000000000000000000000000000000000000000000000600052601260045260246000fd5b60006115aa82610e44565b91506115b583610e44565b9250826115c5576115c4611570565b5b82820690509291505056fea2646970667358221220bf49fa728c0bd7f8427c4b51cba66fd37349833b6f94dafc816a124887f8af8e64736f6c634300080a0033",
  "immutableReferences": {},
  "source": "pragma solidity ^0.8.9;\r\n\r\nimport \"./ERC721Interface.sol\";\r\nimport \"./Fighter.sol\";\r\n\r\ncontract FighterToken is ERC721Interface, Fighter{\r\n\r\n    mapping(uint256 => address) private fighterApproved;\r\n    mapping(address => mapping(address => bool)) private sellerApproves;\r\n\r\n    string public symbol;\r\n    string public name;\r\n    uint8 public decimals;\r\n\r\n    constructor() {\r\n        name = \"Fighter\";\r\n        symbol = \"FT\";\r\n        decimals = 0;\r\n    }\r\n\r\n    function balanceOf(address _owner) external view returns (uint256) {\r\n        return ownerFighters[_owner].length;\r\n    }\r\n\r\n    function ownerOf(uint256 _tokenId) external view returns (address) {\r\n        return fighterOwner[_tokenId];\r\n    }\r\n\r\n    function safeTransferFrom(\r\n        address _from,\r\n        address _to,\r\n        uint256 _tokenId\r\n    ) external {\r\n        // _transfer(_from, _to, _tokenId);\r\n        emit Transfer(_from, _to, _tokenId);\r\n    }\r\n\r\n    function transferFrom(\r\n        address _from,\r\n        address _to,\r\n        uint256 _tokenId\r\n    ) external {\r\n        // _transfer(_from, _to, _tokenId);\r\n        emit Transfer(_from, _to, _tokenId);\r\n    }\r\n\r\n    function approve(address _to, uint256 _tokenId)\r\n        external\r\n    {\r\n        fighterApproved[_tokenId] = _to;\r\n        emit Approval(msg.sender, _to, _tokenId);\r\n    }\r\n\r\n    function getApproved(uint256 _tokenId) external view returns (address) {\r\n        return fighterApproved[_tokenId];\r\n    }\r\n\r\n    function setApprovalForAll(address operator, bool _approved) external {\r\n        sellerApproves[msg.sender][operator] = _approved;\r\n        emit ApprovalForAll(msg.sender, operator, _approved);\r\n    }\r\n\r\n    function isApprovedForAll(address owner, address operator)\r\n        external\r\n        view\r\n        returns (bool)\r\n    {\r\n        return sellerApproves[owner][operator];\r\n    }\r\n\r\n    function _transfer(\r\n        address _from,\r\n        address _to,\r\n        uint256 _tokenId\r\n    ) private {\r\n    }\r\n\r\n    function _transferFrom(\r\n        address _from,\r\n        address _to,\r\n        uint256 _tokenId\r\n    ) internal {\r\n        // _transfer(_from, _to, _tokenId);\r\n        emit Transfer(_from, _to, _tokenId);\r\n    }\r\n}",
  "sourcePath": "C:\\Users\\alber\\Desktop\\nft\\contracts\\FighterToken.sol",
  "compiler": {
    "name": "solc",
    "version": "0.8.10+commit.fc410830.Emscripten.clang"
  },
  "schemaVersion": "3.4.4",
  "updatedAt": "2022-01-31T19:37:32.101Z",
  "devdoc": {
    "kind": "dev",
    "methods": {},
    "version": 1
  },
  "userdoc": {
    "kind": "user",
    "methods": {},
    "version": 1
  }
}