{
  "contractName": "Fighter",
  "abi": [
    {
      "anonymous": false,
      "inputs": [
        {
          "indexed": false,
          "internalType": "uint256",
          "name": "id",
          "type": "uint256"
        },
        {
          "indexed": false,
          "internalType": "string",
          "name": "name",
          "type": "string"
        },
        {
          "indexed": false,
          "internalType": "uint8",
          "name": "dmg",
          "type": "uint8"
        },
        {
          "indexed": false,
          "internalType": "uint8",
          "name": "speed",
          "type": "uint8"
        }
      ],
      "name": "FighterGenerated",
      "type": "event"
    },
    {
      "anonymous": false,
      "inputs": [
        {
          "indexed": false,
          "internalType": "uint256",
          "name": "id",
          "type": "uint256"
        },
        {
          "indexed": false,
          "internalType": "string",
          "name": "name",
          "type": "string"
        }
      ],
      "name": "NameChanged",
      "type": "event"
    },
    {
      "inputs": [
        {
          "internalType": "uint256",
          "name": "",
          "type": "uint256"
        }
      ],
      "name": "fighters",
      "outputs": [
        {
          "internalType": "string",
          "name": "name",
          "type": "string"
        },
        {
          "internalType": "uint256",
          "name": "id",
          "type": "uint256"
        },
        {
          "internalType": "uint8",
          "name": "dmg",
          "type": "uint8"
        },
        {
          "internalType": "uint8",
          "name": "speed",
          "type": "uint8"
        }
      ],
      "stateMutability": "view",
      "type": "function",
      "constant": true
    },
    {
      "inputs": [],
      "name": "generateFighter",
      "outputs": [],
      "stateMutability": "nonpayable",
      "type": "function"
    },
    {
      "inputs": [],
      "name": "getFighters",
      "outputs": [
        {
          "components": [
            {
              "internalType": "string",
              "name": "name",
              "type": "string"
            },
            {
              "internalType": "uint256",
              "name": "id",
              "type": "uint256"
            },
            {
              "internalType": "uint8",
              "name": "dmg",
              "type": "uint8"
            },
            {
              "internalType": "uint8",
              "name": "speed",
              "type": "uint8"
            }
          ],
          "internalType": "struct Fighter.FighterPersonality[]",
          "name": "",
          "type": "tuple[]"
        }
      ],
      "stateMutability": "view",
      "type": "function",
      "constant": true
    },
    {
      "inputs": [
        {
          "internalType": "uint256",
          "name": "id",
          "type": "uint256"
        }
      ],
      "name": "getFighterOwner",
      "outputs": [
        {
          "internalType": "address",
          "name": "",
          "type": "address"
        }
      ],
      "stateMutability": "view",
      "type": "function",
      "constant": true
    }
  ],
  "bytecode": "0x608060405234801561001057600080fd5b50610c72806100206000396000f3fe608060405234801561001057600080fd5b506004361061004c5760003560e01c806309b0b1b2146100515780632e6b221d1461006f57806344c672b8146100a2578063c4de8c2e146100ac575b600080fd5b6100596100dc565b6040516100669190610840565b60405180910390f35b61008960048036038101906100849190610893565b610211565b6040516100999493929190610928565b60405180910390f35b6100aa6102f3565b005b6100c660048036038101906100c19190610893565b610517565b6040516100d391906109b5565b60405180910390f35b60606000805480602002602001604051908101604052809291908181526020016000905b828210156102085783829060005260206000209060030201604051806080016040529081600082018054610133906109ff565b80601f016020809104026020016040519081016040528092919081815260200182805461015f906109ff565b80156101ac5780601f10610181576101008083540402835291602001916101ac565b820191906000526020600020905b81548152906001019060200180831161018f57829003601f168201915b50505050508152602001600182015481526020016002820160009054906101000a900460ff1660ff1660ff1681526020016002820160019054906101000a900460ff1660ff1660ff168152505081526020019060010190610100565b50505050905090565b6000818154811061022157600080fd5b9060005260206000209060030201600091509050806000018054610244906109ff565b80601f0160208091040260200160405190810160405280929190818152602001828054610270906109ff565b80156102bd5780601f10610292576101008083540402835291602001916102bd565b820191906000526020600020905b8154815290600101906020018083116102a057829003601f168201915b5050505050908060010154908060020160009054906101000a900460ff16908060020160019054906101000a900460ff16905084565b600060016000805490506103079190610a60565b9050600061031560f9610554565b905060006103236063610554565b905060006040518060400160405280600481526020017f74657374000000000000000000000000000000000000000000000000000000008152509050600060405180608001604052808381526020018681526020018560ff1681526020018460ff16815250908060018154018082558091505060019003906000526020600020906003020160009091909190915060008201518160000190805190602001906103cd9291906105aa565b506020820151816001015560408201518160020160006101000a81548160ff021916908360ff16021790555060608201518160020160016101000a81548160ff021916908360ff1602179055505050600260003373ffffffffffffffffffffffffffffffffffffffff1673ffffffffffffffffffffffffffffffffffffffff168152602001908152602001600020849080600181540180825580915050600190039060005260206000200160009091909190915055336001600086815260200190815260200160002060006101000a81548173ffffffffffffffffffffffffffffffffffffffff021916908373ffffffffffffffffffffffffffffffffffffffff1602179055507feafef9ee2dad9981839e802168c9af2fe10a139d5806540d9d3e7602c0e33d34848285856040516105099493929190610ab6565b60405180910390a150505050565b60006001600083815260200190815260200160002060009054906101000a900473ffffffffffffffffffffffffffffffffffffffff169050919050565b6000806001836105649190610b02565b42443360405160200161057993929190610b9f565b6040516020818303038152906040528051906020012060001c61059c9190610c0b565b60ff16905080915050919050565b8280546105b6906109ff565b90600052602060002090601f0160209004810192826105d8576000855561061f565b82601f106105f157805160ff191683800117855561061f565b8280016001018555821561061f579182015b8281111561061e578251825591602001919060010190610603565b5b50905061062c9190610630565b5090565b5b80821115610649576000816000905550600101610631565b5090565b600081519050919050565b600082825260208201905092915050565b6000819050602082019050919050565b600081519050919050565b600082825260208201905092915050565b60005b838110156106b3578082015181840152602081019050610698565b838111156106c2576000848401525b50505050565b6000601f19601f8301169050919050565b60006106e482610679565b6106ee8185610684565b93506106fe818560208601610695565b610707816106c8565b840191505092915050565b6000819050919050565b61072581610712565b82525050565b600060ff82169050919050565b6107418161072b565b82525050565b6000608083016000830151848203600086015261076482826106d9565b9150506020830151610779602086018261071c565b50604083015161078c6040860182610738565b50606083015161079f6060860182610738565b508091505092915050565b60006107b68383610747565b905092915050565b6000602082019050919050565b60006107d68261064d565b6107e08185610658565b9350836020820285016107f285610669565b8060005b8581101561082e578484038952815161080f85826107aa565b945061081a836107be565b925060208a019950506001810190506107f6565b50829750879550505050505092915050565b6000602082019050818103600083015261085a81846107cb565b905092915050565b600080fd5b61087081610712565b811461087b57600080fd5b50565b60008135905061088d81610867565b92915050565b6000602082840312156108a9576108a8610862565b5b60006108b78482850161087e565b91505092915050565b600082825260208201905092915050565b60006108dc82610679565b6108e681856108c0565b93506108f6818560208601610695565b6108ff816106c8565b840191505092915050565b61091381610712565b82525050565b6109228161072b565b82525050565b6000608082019050818103600083015261094281876108d1565b9050610951602083018661090a565b61095e6040830185610919565b61096b6060830184610919565b95945050505050565b600073ffffffffffffffffffffffffffffffffffffffff82169050919050565b600061099f82610974565b9050919050565b6109af81610994565b82525050565b60006020820190506109ca60008301846109a6565b92915050565b7f4e487b7100000000000000000000000000000000000000000000000000000000600052602260045260246000fd5b60006002820490506001821680610a1757607f821691505b60208210811415610a2b57610a2a6109d0565b5b50919050565b7f4e487b7100000000000000000000000000000000000000000000000000000000600052601160045260246000fd5b6000610a6b82610712565b9150610a7683610712565b9250827fffffffffffffffffffffffffffffffffffffffffffffffffffffffffffffffff03821115610aab57610aaa610a31565b5b828201905092915050565b6000608082019050610acb600083018761090a565b8181036020830152610add81866108d1565b9050610aec6040830185610919565b610af96060830184610919565b95945050505050565b6000610b0d82610712565b9150610b1883610712565b925082821015610b2b57610b2a610a31565b5b828203905092915050565b6000819050919050565b610b51610b4c82610712565b610b36565b82525050565b60008160601b9050919050565b6000610b6f82610b57565b9050919050565b6000610b8182610b64565b9050919050565b610b99610b9482610994565b610b76565b82525050565b6000610bab8286610b40565b602082019150610bbb8285610b40565b602082019150610bcb8284610b88565b601482019150819050949350505050565b7f4e487b7100000000000000000000000000000000000000000000000000000000600052601260045260246000fd5b6000610c1682610712565b9150610c2183610712565b925082610c3157610c30610bdc565b5b82820690509291505056fea2646970667358221220f8934b10bcc106c306424412a8e2240997d3fe6cb50e06fabc9ef23b6a1892de64736f6c634300080a0033",
  "immutableReferences": {},
  "source": "pragma solidity ^0.8.9;\r\n\r\nimport \"@openzeppelin/contracts/utils/Strings.sol\";\r\n\r\n\r\ncontract Fighter{\r\n\r\n    event FighterGenerated(uint id, string name, uint8 dmg, uint8 speed);\r\n    event NameChanged(uint id, string name);\r\n\r\n    struct FighterPersonality {\r\n        string name;\r\n        uint id;\r\n        uint8 dmg;\r\n        uint8 speed;\r\n    }\r\n\r\n    FighterPersonality[] public fighters;\r\n\r\n    mapping (uint => address) fighterOwner;\r\n    mapping (address => uint[]) ownerFighters;\r\n\r\n    function generateFighter() public { // TODO cambiarla de public a internal\r\n        uint id = fighters.length + 1;\r\n        uint8 dmg = uint8(generateRandomNumber(249));\r\n        uint8 speed = uint8(generateRandomNumber(99));\r\n        string memory name = \"test\"; // Strings.toString(id); Tiene un coste por lo tanto habria que realizar el pago para poder usarlo\r\n        fighters.push(FighterPersonality(name, id, dmg, speed));\r\n        ownerFighters[msg.sender].push(id);\r\n        fighterOwner[id] = msg.sender;\r\n        emit FighterGenerated(id, name, dmg, speed);\r\n    }\r\n    \r\n    function generateRandomNumber(uint max) private view returns (uint) {\r\n        uint result = uint8(\r\n            uint256(\r\n                keccak256(\r\n                    abi.encodePacked(\r\n                        block.timestamp,\r\n                        block.difficulty,\r\n                        msg.sender\r\n                    )\r\n                )\r\n            ) % (max - 1)\r\n        );\r\n        return result;\r\n    }\r\n\r\n    function modifyName(uint256 id, string memory newName) internal {\r\n        fighters[id-1].name = newName;\r\n        emit NameChanged(id, newName);\r\n    }\r\n\r\n    function getFighters() public view returns(FighterPersonality[] memory) { // TODO Esta funcion no debe existir\r\n        return fighters;\r\n    }\r\n\r\n    function getFighterOwner(uint id) public view returns(address) { // TODO Esta funcion no debe existir\r\n        return fighterOwner[id];\r\n    }\r\n    \r\n}",
  "sourcePath": "C:\\Users\\alber\\Desktop\\solidityApp\\nft\\contracts\\Fighter.sol",
  "compiler": {
    "name": "solc",
    "version": "0.8.10+commit.fc410830.Emscripten.clang"
  },
  "schemaVersion": "3.4.4",
  "updatedAt": "2022-01-16T01:03:01.735Z",
  "networkType": "ethereum",
  "devdoc": {
    "kind": "dev",
    "methods": {},
    "version": 1
  },
  "userdoc": {
    "kind": "user",
    "methods": {},
    "version": 1
  }
}