{
  "contractName": "MainFighter",
  "abi": [
    {
      "anonymous": false,
      "inputs": [
        {
          "indexed": true,
          "internalType": "address",
          "name": "_owner",
          "type": "address"
        },
        {
          "indexed": true,
          "internalType": "address",
          "name": "_approved",
          "type": "address"
        },
        {
          "indexed": false,
          "internalType": "uint256",
          "name": "_tokenId",
          "type": "uint256"
        }
      ],
      "name": "Approval",
      "type": "event"
    },
    {
      "anonymous": false,
      "inputs": [
        {
          "indexed": false,
          "internalType": "address",
          "name": "_owner",
          "type": "address"
        },
        {
          "indexed": false,
          "internalType": "address",
          "name": "_operator",
          "type": "address"
        },
        {
          "indexed": false,
          "internalType": "bool",
          "name": "_approved",
          "type": "bool"
        }
      ],
      "name": "ApprovalForAll",
      "type": "event"
    },
    {
      "anonymous": false,
      "inputs": [
        {
          "indexed": false,
          "internalType": "uint256",
          "name": "id",
          "type": "uint256"
        },
        {
          "indexed": false,
          "internalType": "string",
          "name": "name",
          "type": "string"
        },
        {
          "indexed": false,
          "internalType": "uint8",
          "name": "dmg",
          "type": "uint8"
        },
        {
          "indexed": false,
          "internalType": "uint8",
          "name": "speed",
          "type": "uint8"
        }
      ],
      "name": "FighterGenerated",
      "type": "event"
    },
    {
      "anonymous": false,
      "inputs": [
        {
          "indexed": false,
          "internalType": "uint256",
          "name": "id",
          "type": "uint256"
        },
        {
          "indexed": false,
          "internalType": "string",
          "name": "name",
          "type": "string"
        }
      ],
      "name": "NameChanged",
      "type": "event"
    },
    {
      "anonymous": false,
      "inputs": [
        {
          "indexed": true,
          "internalType": "address",
          "name": "_from",
          "type": "address"
        },
        {
          "indexed": true,
          "internalType": "address",
          "name": "_to",
          "type": "address"
        },
        {
          "indexed": false,
          "internalType": "uint256",
          "name": "_tokenId",
          "type": "uint256"
        }
      ],
      "name": "Transfer",
      "type": "event"
    },
    {
      "inputs": [
        {
          "internalType": "address",
          "name": "_to",
          "type": "address"
        },
        {
          "internalType": "uint256",
          "name": "_tokenId",
          "type": "uint256"
        }
      ],
      "name": "approve",
      "outputs": [],
      "stateMutability": "nonpayable",
      "type": "function"
    },
    {
      "inputs": [
        {
          "internalType": "address",
          "name": "_owner",
          "type": "address"
        }
      ],
      "name": "balanceOf",
      "outputs": [
        {
          "internalType": "uint256",
          "name": "",
          "type": "uint256"
        }
      ],
      "stateMutability": "view",
      "type": "function",
      "constant": true
    },
    {
      "inputs": [],
      "name": "decimals",
      "outputs": [
        {
          "internalType": "uint8",
          "name": "",
          "type": "uint8"
        }
      ],
      "stateMutability": "view",
      "type": "function",
      "constant": true
    },
    {
      "inputs": [
        {
          "internalType": "uint256",
          "name": "",
          "type": "uint256"
        }
      ],
      "name": "fighters",
      "outputs": [
        {
          "internalType": "string",
          "name": "name",
          "type": "string"
        },
        {
          "internalType": "uint256",
          "name": "id",
          "type": "uint256"
        },
        {
          "internalType": "uint8",
          "name": "dmg",
          "type": "uint8"
        },
        {
          "internalType": "uint8",
          "name": "speed",
          "type": "uint8"
        }
      ],
      "stateMutability": "view",
      "type": "function",
      "constant": true
    },
    {
      "inputs": [],
      "name": "generateFighter",
      "outputs": [
        {
          "internalType": "uint256",
          "name": "",
          "type": "uint256"
        }
      ],
      "stateMutability": "nonpayable",
      "type": "function"
    },
    {
      "inputs": [
        {
          "internalType": "uint256",
          "name": "_tokenId",
          "type": "uint256"
        }
      ],
      "name": "getApproved",
      "outputs": [
        {
          "internalType": "address",
          "name": "",
          "type": "address"
        }
      ],
      "stateMutability": "view",
      "type": "function",
      "constant": true
    },
    {
      "inputs": [
        {
          "internalType": "uint256",
          "name": "_id",
          "type": "uint256"
        }
      ],
      "name": "getFighterOwner",
      "outputs": [
        {
          "internalType": "address",
          "name": "",
          "type": "address"
        }
      ],
      "stateMutability": "view",
      "type": "function",
      "constant": true
    },
    {
      "inputs": [],
      "name": "getFighters",
      "outputs": [
        {
          "components": [
            {
              "internalType": "string",
              "name": "name",
              "type": "string"
            },
            {
              "internalType": "uint256",
              "name": "id",
              "type": "uint256"
            },
            {
              "internalType": "uint8",
              "name": "dmg",
              "type": "uint8"
            },
            {
              "internalType": "uint8",
              "name": "speed",
              "type": "uint8"
            }
          ],
          "internalType": "struct Fighter.FighterPersonality[]",
          "name": "",
          "type": "tuple[]"
        }
      ],
      "stateMutability": "view",
      "type": "function",
      "constant": true
    },
    {
      "inputs": [
        {
          "internalType": "address",
          "name": "owner",
          "type": "address"
        },
        {
          "internalType": "address",
          "name": "operator",
          "type": "address"
        }
      ],
      "name": "isApprovedForAll",
      "outputs": [
        {
          "internalType": "bool",
          "name": "",
          "type": "bool"
        }
      ],
      "stateMutability": "view",
      "type": "function",
      "constant": true
    },
    {
      "inputs": [],
      "name": "name",
      "outputs": [
        {
          "internalType": "string",
          "name": "",
          "type": "string"
        }
      ],
      "stateMutability": "view",
      "type": "function",
      "constant": true
    },
    {
      "inputs": [
        {
          "internalType": "uint256",
          "name": "_tokenId",
          "type": "uint256"
        }
      ],
      "name": "ownerOf",
      "outputs": [
        {
          "internalType": "address",
          "name": "",
          "type": "address"
        }
      ],
      "stateMutability": "view",
      "type": "function",
      "constant": true
    },
    {
      "inputs": [
        {
          "internalType": "address",
          "name": "_from",
          "type": "address"
        },
        {
          "internalType": "address",
          "name": "_to",
          "type": "address"
        },
        {
          "internalType": "uint256",
          "name": "_tokenId",
          "type": "uint256"
        }
      ],
      "name": "safeTransferFrom",
      "outputs": [],
      "stateMutability": "nonpayable",
      "type": "function"
    },
    {
      "inputs": [
        {
          "internalType": "address",
          "name": "operator",
          "type": "address"
        },
        {
          "internalType": "bool",
          "name": "_approved",
          "type": "bool"
        }
      ],
      "name": "setApprovalForAll",
      "outputs": [],
      "stateMutability": "nonpayable",
      "type": "function"
    },
    {
      "inputs": [],
      "name": "symbol",
      "outputs": [
        {
          "internalType": "string",
          "name": "",
          "type": "string"
        }
      ],
      "stateMutability": "view",
      "type": "function",
      "constant": true
    },
    {
      "inputs": [
        {
          "internalType": "address",
          "name": "_from",
          "type": "address"
        },
        {
          "internalType": "address",
          "name": "_to",
          "type": "address"
        },
        {
          "internalType": "uint256",
          "name": "_tokenId",
          "type": "uint256"
        }
      ],
      "name": "transferFrom",
      "outputs": [],
      "stateMutability": "nonpayable",
      "type": "function"
    },
    {
      "inputs": [],
      "name": "buyFighter",
      "outputs": [],
      "stateMutability": "payable",
      "type": "function",
      "payable": true
    },
    {
      "inputs": [
        {
          "internalType": "uint256",
          "name": "_id",
          "type": "uint256"
        },
        {
          "internalType": "string",
          "name": "_name",
          "type": "string"
        }
      ],
      "name": "changeName",
      "outputs": [],
      "stateMutability": "payable",
      "type": "function",
      "payable": true
    },
    {
      "inputs": [],
      "name": "getAllFighters",
      "outputs": [
        {
          "components": [
            {
              "internalType": "string",
              "name": "name",
              "type": "string"
            },
            {
              "internalType": "uint256",
              "name": "id",
              "type": "uint256"
            },
            {
              "internalType": "uint8",
              "name": "dmg",
              "type": "uint8"
            },
            {
              "internalType": "uint8",
              "name": "speed",
              "type": "uint8"
            }
          ],
          "internalType": "struct Fighter.FighterPersonality[]",
          "name": "",
          "type": "tuple[]"
        }
      ],
      "stateMutability": "view",
      "type": "function",
      "constant": true
    },
    {
      "inputs": [
        {
          "internalType": "uint256",
          "name": "_id",
          "type": "uint256"
        }
      ],
      "name": "getOwnFighter",
      "outputs": [
        {
          "internalType": "address",
          "name": "",
          "type": "address"
        }
      ],
      "stateMutability": "view",
      "type": "function",
      "constant": true
    }
  ],
  "bytecode": "0x6080604052662386f26fc100006003553480156200001c57600080fd5b506040518060400160405280600781526020017f4669676874657200000000000000000000000000000000000000000000000000815250600790805190602001906200006a929190620000db565b506040518060400160405280600281526020017f465400000000000000000000000000000000000000000000000000000000000081525060069080519060200190620000b8929190620000db565b506000600860006101000a81548160ff021916908360ff160217905550620001f0565b828054620000e990620001ba565b90600052602060002090601f0160209004810192826200010d576000855562000159565b82601f106200012857805160ff191683800117855562000159565b8280016001018555821562000159579182015b82811115620001585782518255916020019190600101906200013b565b5b5090506200016891906200016c565b5090565b5b80821115620001875760008160009055506001016200016d565b5090565b7f4e487b7100000000000000000000000000000000000000000000000000000000600052602260045260246000fd5b60006002820490506001821680620001d357607f821691505b60208210811415620001ea57620001e96200018b565b5b50919050565b611bc580620002006000396000f3fe6080604052600436106101145760003560e01c806344c672b8116100a0578063a22cb46511610064578063a22cb465146103a9578063c39cbef1146103d2578063c4de8c2e146103ee578063e985e9c51461042b578063eb5fa89c1461046857610114565b806344c672b81461029c5780635e5c0b3b146102c75780636352211e1461030457806370a082311461034157806395d89b411461037e57610114565b8063193589d6116100e7578063193589d6146101d557806323b872dd146101df5780632e6b221d14610208578063313ce5671461024857806342842e0e1461027357610114565b806306fdde0314610119578063081812fc14610144578063095ea7b31461018157806309b0b1b2146101aa575b600080fd5b34801561012557600080fd5b5061012e610493565b60405161013b919061114b565b60405180910390f35b34801561015057600080fd5b5061016b600480360381019061016691906111b7565b610521565b6040516101789190611225565b60405180910390f35b34801561018d57600080fd5b506101a860048036038101906101a3919061126c565b61055e565b005b3480156101b657600080fd5b506101bf610619565b6040516101cc9190611446565b60405180910390f35b6101dd61074e565b005b3480156101eb57600080fd5b5061020660048036038101906102019190611468565b6107ac565b005b34801561021457600080fd5b5061022f600480360381019061022a91906111b7565b610816565b60405161023f94939291906114d9565b60405180910390f35b34801561025457600080fd5b5061025d6108f8565b60405161026a9190611525565b60405180910390f35b34801561027f57600080fd5b5061029a60048036038101906102959190611468565b61090b565b005b3480156102a857600080fd5b506102b1610975565b6040516102be9190611540565b60405180910390f35b3480156102d357600080fd5b506102ee60048036038101906102e991906111b7565b610b9e565b6040516102fb9190611225565b60405180910390f35b34801561031057600080fd5b5061032b600480360381019061032691906111b7565b610bb0565b6040516103389190611225565b60405180910390f35b34801561034d57600080fd5b506103686004803603810190610363919061155b565b610bed565b6040516103759190611540565b60405180910390f35b34801561038a57600080fd5b50610393610c39565b6040516103a0919061114b565b60405180910390f35b3480156103b557600080fd5b506103d060048036038101906103cb91906115c0565b610cc7565b005b6103ec60048036038101906103e79190611735565b610d9a565b005b3480156103fa57600080fd5b50610415600480360381019061041091906111b7565b610dec565b6040516104229190611225565b60405180910390f35b34801561043757600080fd5b50610452600480360381019061044d9190611791565b610e29565b60405161045f91906117e0565b60405180910390f35b34801561047457600080fd5b5061047d610ebd565b60405161048a9190611446565b60405180910390f35b600780546104a09061182a565b80601f01602080910402602001604051908101604052809291908181526020018280546104cc9061182a565b80156105195780601f106104ee57610100808354040283529160200191610519565b820191906000526020600020905b8154815290600101906020018083116104fc57829003601f168201915b505050505081565b60006004600083815260200190815260200160002060009054906101000a900473ffffffffffffffffffffffffffffffffffffffff169050919050565b816004600083815260200190815260200160002060006101000a81548173ffffffffffffffffffffffffffffffffffffffff021916908373ffffffffffffffffffffffffffffffffffffffff1602179055508173ffffffffffffffffffffffffffffffffffffffff163373ffffffffffffffffffffffffffffffffffffffff167f8c5be1e5ebec7d5bd14f71427d1e84f3dd0314c0f7b2291e5b200ac8c7c3b9258360405161060d9190611540565b60405180910390a35050565b60606000805480602002602001604051908101604052809291908181526020016000905b8282101561074557838290600052602060002090600302016040518060800160405290816000820180546106709061182a565b80601f016020809104026020016040519081016040528092919081815260200182805461069c9061182a565b80156106e95780601f106106be576101008083540402835291602001916106e9565b820191906000526020600020905b8154815290600101906020018083116106cc57829003601f168201915b50505050508152602001600182015481526020016002820160009054906101000a900460ff1660ff1660ff1681526020016002820160019054906101000a900460ff1660ff1660ff16815250508152602001906001019061063d565b50505050905090565b6003543414610792576040517f08c379a0000000000000000000000000000000000000000000000000000000008152600401610789906118ce565b60405180910390fd5b600061079c610975565b90506107a9303383610ecc565b50565b8173ffffffffffffffffffffffffffffffffffffffff168373ffffffffffffffffffffffffffffffffffffffff167fddf252ad1be2c89b69c2b068fc378daa952ba7f163c4a11628f55a4df523b3ef836040516108099190611540565b60405180910390a3505050565b6000818154811061082657600080fd5b90600052602060002090600302016000915090508060000180546108499061182a565b80601f01602080910402602001604051908101604052809291908181526020018280546108759061182a565b80156108c25780601f10610897576101008083540402835291602001916108c2565b820191906000526020600020905b8154815290600101906020018083116108a557829003601f168201915b5050505050908060010154908060020160009054906101000a900460ff16908060020160019054906101000a900460ff16905084565b600860009054906101000a900460ff1681565b8173ffffffffffffffffffffffffffffffffffffffff168373ffffffffffffffffffffffffffffffffffffffff167fddf252ad1be2c89b69c2b068fc378daa952ba7f163c4a11628f55a4df523b3ef836040516109689190611540565b60405180910390a3505050565b600080600160008054905061098a919061191d565b9050600061099860f9610f36565b905060006109a66063610f36565b905060006040518060400160405280600481526020017f74657374000000000000000000000000000000000000000000000000000000008152509050600060405180608001604052808381526020018681526020018560ff1681526020018460ff1681525090806001815401808255809150506001900390600052602060002090600302016000909190919091506000820151816000019080519060200190610a5092919061100f565b506020820151816001015560408201518160020160006101000a81548160ff021916908360ff16021790555060608201518160020160016101000a81548160ff021916908360ff1602179055505050600260003373ffffffffffffffffffffffffffffffffffffffff1673ffffffffffffffffffffffffffffffffffffffff168152602001908152602001600020849080600181540180825580915050600190039060005260206000200160009091909190915055336001600086815260200190815260200160002060006101000a81548173ffffffffffffffffffffffffffffffffffffffff021916908373ffffffffffffffffffffffffffffffffffffffff1602179055507feafef9ee2dad9981839e802168c9af2fe10a139d5806540d9d3e7602c0e33d3484828585604051610b8c9493929190611973565b60405180910390a18394505050505090565b6000610ba982610dec565b9050919050565b60006001600083815260200190815260200160002060009054906101000a900473ffffffffffffffffffffffffffffffffffffffff169050919050565b6000600260008373ffffffffffffffffffffffffffffffffffffffff1673ffffffffffffffffffffffffffffffffffffffff168152602001908152602001600020805490509050919050565b60068054610c469061182a565b80601f0160208091040260200160405190810160405280929190818152602001828054610c729061182a565b8015610cbf5780601f10610c9457610100808354040283529160200191610cbf565b820191906000526020600020905b815481529060010190602001808311610ca257829003601f168201915b505050505081565b80600560003373ffffffffffffffffffffffffffffffffffffffff1673ffffffffffffffffffffffffffffffffffffffff16815260200190815260200160002060008473ffffffffffffffffffffffffffffffffffffffff1673ffffffffffffffffffffffffffffffffffffffff16815260200190815260200160002060006101000a81548160ff0219169083151502179055507f17307eab39ab6107e8899845ad3d59bd9653f200f220920489ca2b5937696c31338383604051610d8e939291906119bf565b60405180910390a15050565b6003543414610dde576040517f08c379a0000000000000000000000000000000000000000000000000000000008152600401610dd5906118ce565b60405180910390fd5b610de88282610f8c565b5050565b60006001600083815260200190815260200160002060009054906101000a900473ffffffffffffffffffffffffffffffffffffffff169050919050565b6000600560008473ffffffffffffffffffffffffffffffffffffffff1673ffffffffffffffffffffffffffffffffffffffff16815260200190815260200160002060008373ffffffffffffffffffffffffffffffffffffffff1673ffffffffffffffffffffffffffffffffffffffff16815260200190815260200160002060009054906101000a900460ff16905092915050565b6060610ec7610619565b905090565b8173ffffffffffffffffffffffffffffffffffffffff168373ffffffffffffffffffffffffffffffffffffffff167fddf252ad1be2c89b69c2b068fc378daa952ba7f163c4a11628f55a4df523b3ef83604051610f299190611540565b60405180910390a3505050565b600080600183610f4691906119f6565b424433604051602001610f5b93929190611a93565b6040516020818303038152906040528051906020012060001c610f7e9190611aff565b60ff16905080915050919050565b806000600184610f9c91906119f6565b81548110610fad57610fac611b30565b5b90600052602060002090600302016000019080519060200190610fd192919061100f565b507f8edfa912e70e283a8ef6d6f52cd1faef9690ff989eff2f11a134e8478ba7b28b8282604051611003929190611b5f565b60405180910390a15050565b82805461101b9061182a565b90600052602060002090601f01602090048101928261103d5760008555611084565b82601f1061105657805160ff1916838001178555611084565b82800160010185558215611084579182015b82811115611083578251825591602001919060010190611068565b5b5090506110919190611095565b5090565b5b808211156110ae576000816000905550600101611096565b5090565b600081519050919050565b600082825260208201905092915050565b60005b838110156110ec5780820151818401526020810190506110d1565b838111156110fb576000848401525b50505050565b6000601f19601f8301169050919050565b600061111d826110b2565b61112781856110bd565b93506111378185602086016110ce565b61114081611101565b840191505092915050565b600060208201905081810360008301526111658184611112565b905092915050565b6000604051905090565b600080fd5b600080fd5b6000819050919050565b61119481611181565b811461119f57600080fd5b50565b6000813590506111b18161118b565b92915050565b6000602082840312156111cd576111cc611177565b5b60006111db848285016111a2565b91505092915050565b600073ffffffffffffffffffffffffffffffffffffffff82169050919050565b600061120f826111e4565b9050919050565b61121f81611204565b82525050565b600060208201905061123a6000830184611216565b92915050565b61124981611204565b811461125457600080fd5b50565b60008135905061126681611240565b92915050565b6000806040838503121561128357611282611177565b5b600061129185828601611257565b92505060206112a2858286016111a2565b9150509250929050565b600081519050919050565b600082825260208201905092915050565b6000819050602082019050919050565b600082825260208201905092915050565b60006112f4826110b2565b6112fe81856112d8565b935061130e8185602086016110ce565b61131781611101565b840191505092915050565b61132b81611181565b82525050565b600060ff82169050919050565b61134781611331565b82525050565b6000608083016000830151848203600086015261136a82826112e9565b915050602083015161137f6020860182611322565b506040830151611392604086018261133e565b5060608301516113a5606086018261133e565b508091505092915050565b60006113bc838361134d565b905092915050565b6000602082019050919050565b60006113dc826112ac565b6113e681856112b7565b9350836020820285016113f8856112c8565b8060005b85811015611434578484038952815161141585826113b0565b9450611420836113c4565b925060208a019950506001810190506113fc565b50829750879550505050505092915050565b6000602082019050818103600083015261146081846113d1565b905092915050565b60008060006060848603121561148157611480611177565b5b600061148f86828701611257565b93505060206114a086828701611257565b92505060406114b1868287016111a2565b9150509250925092565b6114c481611181565b82525050565b6114d381611331565b82525050565b600060808201905081810360008301526114f38187611112565b905061150260208301866114bb565b61150f60408301856114ca565b61151c60608301846114ca565b95945050505050565b600060208201905061153a60008301846114ca565b92915050565b600060208201905061155560008301846114bb565b92915050565b60006020828403121561157157611570611177565b5b600061157f84828501611257565b91505092915050565b60008115159050919050565b61159d81611588565b81146115a857600080fd5b50565b6000813590506115ba81611594565b92915050565b600080604083850312156115d7576115d6611177565b5b60006115e585828601611257565b92505060206115f6858286016115ab565b9150509250929050565b600080fd5b600080fd5b7f4e487b7100000000000000000000000000000000000000000000000000000000600052604160045260246000fd5b61164282611101565b810181811067ffffffffffffffff821117156116615761166061160a565b5b80604052505050565b600061167461116d565b90506116808282611639565b919050565b600067ffffffffffffffff8211156116a05761169f61160a565b5b6116a982611101565b9050602081019050919050565b82818337600083830152505050565b60006116d86116d384611685565b61166a565b9050828152602081018484840111156116f4576116f3611605565b5b6116ff8482856116b6565b509392505050565b600082601f83011261171c5761171b611600565b5b813561172c8482602086016116c5565b91505092915050565b6000806040838503121561174c5761174b611177565b5b600061175a858286016111a2565b925050602083013567ffffffffffffffff81111561177b5761177a61117c565b5b61178785828601611707565b9150509250929050565b600080604083850312156117a8576117a7611177565b5b60006117b685828601611257565b92505060206117c785828601611257565b9150509250929050565b6117da81611588565b82525050565b60006020820190506117f560008301846117d1565b92915050565b7f4e487b7100000000000000000000000000000000000000000000000000000000600052602260045260246000fd5b6000600282049050600182168061184257607f821691505b60208210811415611856576118556117fb565b5b50919050565b7f596f7520646f6e74206861766520656e6f7567682066656520666f722074686560008201527f207472616e73616374696f6e0000000000000000000000000000000000000000602082015250565b60006118b8602c836110bd565b91506118c38261185c565b604082019050919050565b600060208201905081810360008301526118e7816118ab565b9050919050565b7f4e487b7100000000000000000000000000000000000000000000000000000000600052601160045260246000fd5b600061192882611181565b915061193383611181565b9250827fffffffffffffffffffffffffffffffffffffffffffffffffffffffffffffffff03821115611968576119676118ee565b5b828201905092915050565b600060808201905061198860008301876114bb565b818103602083015261199a8186611112565b90506119a960408301856114ca565b6119b660608301846114ca565b95945050505050565b60006060820190506119d46000830186611216565b6119e16020830185611216565b6119ee60408301846117d1565b949350505050565b6000611a0182611181565b9150611a0c83611181565b925082821015611a1f57611a1e6118ee565b5b828203905092915050565b6000819050919050565b611a45611a4082611181565b611a2a565b82525050565b60008160601b9050919050565b6000611a6382611a4b565b9050919050565b6000611a7582611a58565b9050919050565b611a8d611a8882611204565b611a6a565b82525050565b6000611a9f8286611a34565b602082019150611aaf8285611a34565b602082019150611abf8284611a7c565b601482019150819050949350505050565b7f4e487b7100000000000000000000000000000000000000000000000000000000600052601260045260246000fd5b6000611b0a82611181565b9150611b1583611181565b925082611b2557611b24611ad0565b5b828206905092915050565b7f4e487b7100000000000000000000000000000000000000000000000000000000600052603260045260246000fd5b6000604082019050611b7460008301856114bb565b8181036020830152611b868184611112565b9050939250505056fea2646970667358221220eced59bd2f237e56ccd95550c0b057f51bbb8c193bea623194ec851522dd1d6764736f6c634300080a0033",
  "immutableReferences": {},
  "source": "pragma solidity ^0.8.9;\r\n\r\nimport \"./Fighter.sol\";\r\nimport \"./FighterUtils.sol\";\r\nimport \"./FighterToken.sol\";\r\n\r\ncontract MainFighter is Fighter, FighterUtils, FighterToken{\r\n\r\n    function buyFighter() external payable checkFee {\r\n        uint256 id = generateFighter();\r\n        _transferFrom(address(this), msg.sender, id);\r\n    }\r\n\r\n    function changeName(uint256 _id, string memory _name) external payable checkFee {\r\n        modifyName(_id, _name);\r\n    }\r\n\r\n    function getAllFighters() public view returns(FighterPersonality[] memory){\r\n        return getFighters();\r\n    }\r\n\r\n    function getOwnFighter(uint _id) public view returns(address){\r\n        return getFighterOwner(_id);\r\n    }\r\n\r\n}",
  "sourcePath": "C:\\Users\\alber\\Desktop\\nft\\contracts\\MainFighter.sol",
  "compiler": {
    "name": "solc",
    "version": "0.8.10+commit.fc410830.Emscripten.clang"
  },
  "schemaVersion": "3.4.4",
  "updatedAt": "2022-01-19T01:25:43.090Z",
  "networkType": "ethereum",
  "devdoc": {
    "kind": "dev",
    "methods": {},
    "version": 1
  },
  "userdoc": {
    "kind": "user",
    "methods": {},
    "version": 1
  }
}