{
  "contractName": "MainFighter",
  "abi": [
    {
      "anonymous": false,
      "inputs": [
        {
          "indexed": false,
          "internalType": "uint256",
          "name": "id",
          "type": "uint256"
        },
        {
          "indexed": false,
          "internalType": "string",
          "name": "name",
          "type": "string"
        },
        {
          "indexed": false,
          "internalType": "uint8",
          "name": "dmg",
          "type": "uint8"
        },
        {
          "indexed": false,
          "internalType": "uint8",
          "name": "speed",
          "type": "uint8"
        }
      ],
      "name": "FighterGenerated",
      "type": "event"
    },
    {
      "anonymous": false,
      "inputs": [
        {
          "indexed": false,
          "internalType": "uint256",
          "name": "id",
          "type": "uint256"
        },
        {
          "indexed": false,
          "internalType": "string",
          "name": "name",
          "type": "string"
        }
      ],
      "name": "NameChanged",
      "type": "event"
    },
    {
      "inputs": [
        {
          "internalType": "uint256",
          "name": "",
          "type": "uint256"
        }
      ],
      "name": "fighters",
      "outputs": [
        {
          "internalType": "string",
          "name": "name",
          "type": "string"
        },
        {
          "internalType": "uint256",
          "name": "id",
          "type": "uint256"
        },
        {
          "internalType": "uint8",
          "name": "dmg",
          "type": "uint8"
        },
        {
          "internalType": "uint8",
          "name": "speed",
          "type": "uint8"
        }
      ],
      "stateMutability": "view",
      "type": "function",
      "constant": true
    },
    {
      "inputs": [],
      "name": "generateFighter",
      "outputs": [],
      "stateMutability": "nonpayable",
      "type": "function"
    },
    {
      "inputs": [
        {
          "internalType": "uint256",
          "name": "id",
          "type": "uint256"
        }
      ],
      "name": "getFighterOwner",
      "outputs": [
        {
          "internalType": "address",
          "name": "",
          "type": "address"
        }
      ],
      "stateMutability": "view",
      "type": "function",
      "constant": true
    },
    {
      "inputs": [],
      "name": "getFighters",
      "outputs": [
        {
          "components": [
            {
              "internalType": "string",
              "name": "name",
              "type": "string"
            },
            {
              "internalType": "uint256",
              "name": "id",
              "type": "uint256"
            },
            {
              "internalType": "uint8",
              "name": "dmg",
              "type": "uint8"
            },
            {
              "internalType": "uint8",
              "name": "speed",
              "type": "uint8"
            }
          ],
          "internalType": "struct Fighter.FighterPersonality[]",
          "name": "",
          "type": "tuple[]"
        }
      ],
      "stateMutability": "view",
      "type": "function",
      "constant": true
    },
    {
      "inputs": [],
      "name": "buyFighter",
      "outputs": [],
      "stateMutability": "payable",
      "type": "function",
      "payable": true
    },
    {
      "inputs": [
        {
          "internalType": "uint256",
          "name": "id",
          "type": "uint256"
        },
        {
          "internalType": "string",
          "name": "name",
          "type": "string"
        }
      ],
      "name": "changeName",
      "outputs": [],
      "stateMutability": "payable",
      "type": "function",
      "payable": true
    }
  ],
  "bytecode": "0x6080604052662386f26fc1000060035534801561001b57600080fd5b506110898061002b6000396000f3fe6080604052600436106100555760003560e01c806309b0b1b21461005a578063193589d6146100855780632e6b221d1461008f57806344c672b8146100cf578063c39cbef1146100e6578063c4de8c2e14610102575b600080fd5b34801561006657600080fd5b5061006f61013f565b60405161007c91906109c6565b60405180910390f35b61008d610274565b005b34801561009b57600080fd5b506100b660048036038101906100b19190610a28565b6102c2565b6040516100c69493929190610abd565b60405180910390f35b3480156100db57600080fd5b506100e46103a4565b005b61010060048036038101906100fb9190610c3e565b6105c8565b005b34801561010e57600080fd5b5061012960048036038101906101249190610a28565b61061a565b6040516101369190610cdb565b60405180910390f35b60606000805480602002602001604051908101604052809291908181526020016000905b8282101561026b578382906000526020600020906003020160405180608001604052908160008201805461019690610d25565b80601f01602080910402602001604051908101604052809291908181526020018280546101c290610d25565b801561020f5780601f106101e45761010080835404028352916020019161020f565b820191906000526020600020905b8154815290600101906020018083116101f257829003601f168201915b50505050508152602001600182015481526020016002820160009054906101000a900460ff1660ff1660ff1681526020016002820160019054906101000a900460ff1660ff1660ff168152505081526020019060010190610163565b50505050905090565b60035434146102b8576040517f08c379a00000000000000000000000000000000000000000000000000000000081526004016102af90610dc9565b60405180910390fd5b6102c06103a4565b565b600081815481106102d257600080fd5b90600052602060002090600302016000915090508060000180546102f590610d25565b80601f016020809104026020016040519081016040528092919081815260200182805461032190610d25565b801561036e5780601f106103435761010080835404028352916020019161036e565b820191906000526020600020905b81548152906001019060200180831161035157829003601f168201915b5050505050908060010154908060020160009054906101000a900460ff16908060020160019054906101000a900460ff16905084565b600060016000805490506103b89190610e18565b905060006103c660f9610657565b905060006103d46063610657565b905060006040518060400160405280600481526020017f74657374000000000000000000000000000000000000000000000000000000008152509050600060405180608001604052808381526020018681526020018560ff1681526020018460ff168152509080600181540180825580915050600190039060005260206000209060030201600090919091909150600082015181600001908051906020019061047e929190610730565b506020820151816001015560408201518160020160006101000a81548160ff021916908360ff16021790555060608201518160020160016101000a81548160ff021916908360ff1602179055505050600260003373ffffffffffffffffffffffffffffffffffffffff1673ffffffffffffffffffffffffffffffffffffffff168152602001908152602001600020849080600181540180825580915050600190039060005260206000200160009091909190915055336001600086815260200190815260200160002060006101000a81548173ffffffffffffffffffffffffffffffffffffffff021916908373ffffffffffffffffffffffffffffffffffffffff1602179055507feafef9ee2dad9981839e802168c9af2fe10a139d5806540d9d3e7602c0e33d34848285856040516105ba9493929190610e6e565b60405180910390a150505050565b600354341461060c576040517f08c379a000000000000000000000000000000000000000000000000000000000815260040161060390610dc9565b60405180910390fd5b61061682826106ad565b5050565b60006001600083815260200190815260200160002060009054906101000a900473ffffffffffffffffffffffffffffffffffffffff169050919050565b6000806001836106679190610eba565b42443360405160200161067c93929190610f57565b6040516020818303038152906040528051906020012060001c61069f9190610fc3565b60ff16905080915050919050565b8060006001846106bd9190610eba565b815481106106ce576106cd610ff4565b5b906000526020600020906003020160000190805190602001906106f2929190610730565b507f8edfa912e70e283a8ef6d6f52cd1faef9690ff989eff2f11a134e8478ba7b28b8282604051610724929190611023565b60405180910390a15050565b82805461073c90610d25565b90600052602060002090601f01602090048101928261075e57600085556107a5565b82601f1061077757805160ff19168380011785556107a5565b828001600101855582156107a5579182015b828111156107a4578251825591602001919060010190610789565b5b5090506107b291906107b6565b5090565b5b808211156107cf5760008160009055506001016107b7565b5090565b600081519050919050565b600082825260208201905092915050565b6000819050602082019050919050565b600081519050919050565b600082825260208201905092915050565b60005b8381101561083957808201518184015260208101905061081e565b83811115610848576000848401525b50505050565b6000601f19601f8301169050919050565b600061086a826107ff565b610874818561080a565b935061088481856020860161081b565b61088d8161084e565b840191505092915050565b6000819050919050565b6108ab81610898565b82525050565b600060ff82169050919050565b6108c7816108b1565b82525050565b600060808301600083015184820360008601526108ea828261085f565b91505060208301516108ff60208601826108a2565b50604083015161091260408601826108be565b50606083015161092560608601826108be565b508091505092915050565b600061093c83836108cd565b905092915050565b6000602082019050919050565b600061095c826107d3565b61096681856107de565b935083602082028501610978856107ef565b8060005b858110156109b457848403895281516109958582610930565b94506109a083610944565b925060208a0199505060018101905061097c565b50829750879550505050505092915050565b600060208201905081810360008301526109e08184610951565b905092915050565b6000604051905090565b600080fd5b600080fd5b610a0581610898565b8114610a1057600080fd5b50565b600081359050610a22816109fc565b92915050565b600060208284031215610a3e57610a3d6109f2565b5b6000610a4c84828501610a13565b91505092915050565b600082825260208201905092915050565b6000610a71826107ff565b610a7b8185610a55565b9350610a8b81856020860161081b565b610a948161084e565b840191505092915050565b610aa881610898565b82525050565b610ab7816108b1565b82525050565b60006080820190508181036000830152610ad78187610a66565b9050610ae66020830186610a9f565b610af36040830185610aae565b610b006060830184610aae565b95945050505050565b600080fd5b600080fd5b7f4e487b7100000000000000000000000000000000000000000000000000000000600052604160045260246000fd5b610b4b8261084e565b810181811067ffffffffffffffff82111715610b6a57610b69610b13565b5b80604052505050565b6000610b7d6109e8565b9050610b898282610b42565b919050565b600067ffffffffffffffff821115610ba957610ba8610b13565b5b610bb28261084e565b9050602081019050919050565b82818337600083830152505050565b6000610be1610bdc84610b8e565b610b73565b905082815260208101848484011115610bfd57610bfc610b0e565b5b610c08848285610bbf565b509392505050565b600082601f830112610c2557610c24610b09565b5b8135610c35848260208601610bce565b91505092915050565b60008060408385031215610c5557610c546109f2565b5b6000610c6385828601610a13565b925050602083013567ffffffffffffffff811115610c8457610c836109f7565b5b610c9085828601610c10565b9150509250929050565b600073ffffffffffffffffffffffffffffffffffffffff82169050919050565b6000610cc582610c9a565b9050919050565b610cd581610cba565b82525050565b6000602082019050610cf06000830184610ccc565b92915050565b7f4e487b7100000000000000000000000000000000000000000000000000000000600052602260045260246000fd5b60006002820490506001821680610d3d57607f821691505b60208210811415610d5157610d50610cf6565b5b50919050565b7f596f7520646f6e74206861766520656e6f7567682066656520666f722074686560008201527f207472616e73616374696f6e0000000000000000000000000000000000000000602082015250565b6000610db3602c83610a55565b9150610dbe82610d57565b604082019050919050565b60006020820190508181036000830152610de281610da6565b9050919050565b7f4e487b7100000000000000000000000000000000000000000000000000000000600052601160045260246000fd5b6000610e2382610898565b9150610e2e83610898565b9250827fffffffffffffffffffffffffffffffffffffffffffffffffffffffffffffffff03821115610e6357610e62610de9565b5b828201905092915050565b6000608082019050610e836000830187610a9f565b8181036020830152610e958186610a66565b9050610ea46040830185610aae565b610eb16060830184610aae565b95945050505050565b6000610ec582610898565b9150610ed083610898565b925082821015610ee357610ee2610de9565b5b828203905092915050565b6000819050919050565b610f09610f0482610898565b610eee565b82525050565b60008160601b9050919050565b6000610f2782610f0f565b9050919050565b6000610f3982610f1c565b9050919050565b610f51610f4c82610cba565b610f2e565b82525050565b6000610f638286610ef8565b602082019150610f738285610ef8565b602082019150610f838284610f40565b601482019150819050949350505050565b7f4e487b7100000000000000000000000000000000000000000000000000000000600052601260045260246000fd5b6000610fce82610898565b9150610fd983610898565b925082610fe957610fe8610f94565b5b828206905092915050565b7f4e487b7100000000000000000000000000000000000000000000000000000000600052603260045260246000fd5b60006040820190506110386000830185610a9f565b818103602083015261104a8184610a66565b9050939250505056fea2646970667358221220a5ecb5026a818e9d585bcbec09cf71825dc47a79bccbb412721a81492bf5052464736f6c634300080a0033",
  "immutableReferences": {},
  "source": "pragma solidity ^0.8.9;\r\n\r\nimport './Fighter.sol';\r\nimport './FighterUtils.sol';\r\n\r\ncontract MainFighter is Fighter, FighterUtils{\r\n\r\n    function buyFighter() external payable checkFee {\r\n        generateFighter();\r\n    }\r\n\r\n    function changeName(uint256 id, string memory name) external payable checkFee {\r\n        modifyName(id, name);\r\n    }\r\n\r\n}",
  "sourcePath": "C:\\Users\\alber\\Desktop\\solidityApp\\nft\\contracts\\MainFighter.sol",
  "compiler": {
    "name": "solc",
    "version": "0.8.10+commit.fc410830.Emscripten.clang"
  },
  "schemaVersion": "3.4.4",
  "updatedAt": "2022-01-16T01:03:01.742Z",
  "networkType": "ethereum",
  "devdoc": {
    "kind": "dev",
    "methods": {},
    "version": 1
  },
  "userdoc": {
    "kind": "user",
    "methods": {},
    "version": 1
  }
}