{
  "contractName": "MLDToken",
  "abi": [
    {
      "inputs": [],
      "stateMutability": "nonpayable",
      "type": "constructor"
    },
    {
      "anonymous": false,
      "inputs": [
        {
          "indexed": true,
          "internalType": "address",
          "name": "owner",
          "type": "address"
        },
        {
          "indexed": true,
          "internalType": "address",
          "name": "spender",
          "type": "address"
        },
        {
          "indexed": false,
          "internalType": "uint256",
          "name": "value",
          "type": "uint256"
        }
      ],
      "name": "Approval",
      "type": "event"
    },
    {
      "anonymous": false,
      "inputs": [
        {
          "indexed": true,
          "internalType": "address",
          "name": "previousOwner",
          "type": "address"
        },
        {
          "indexed": true,
          "internalType": "address",
          "name": "newOwner",
          "type": "address"
        }
      ],
      "name": "OwnershipTransferred",
      "type": "event"
    },
    {
      "anonymous": false,
      "inputs": [
        {
          "indexed": true,
          "internalType": "address",
          "name": "from",
          "type": "address"
        },
        {
          "indexed": true,
          "internalType": "address",
          "name": "to",
          "type": "address"
        },
        {
          "indexed": false,
          "internalType": "uint256",
          "name": "value",
          "type": "uint256"
        }
      ],
      "name": "Transfer",
      "type": "event"
    },
    {
      "inputs": [
        {
          "internalType": "address",
          "name": "owner",
          "type": "address"
        },
        {
          "internalType": "address",
          "name": "spender",
          "type": "address"
        }
      ],
      "name": "allowance",
      "outputs": [
        {
          "internalType": "uint256",
          "name": "",
          "type": "uint256"
        }
      ],
      "stateMutability": "view",
      "type": "function",
      "constant": true
    },
    {
      "inputs": [
        {
          "internalType": "address",
          "name": "spender",
          "type": "address"
        },
        {
          "internalType": "uint256",
          "name": "amount",
          "type": "uint256"
        }
      ],
      "name": "approve",
      "outputs": [
        {
          "internalType": "bool",
          "name": "",
          "type": "bool"
        }
      ],
      "stateMutability": "nonpayable",
      "type": "function"
    },
    {
      "inputs": [
        {
          "internalType": "address",
          "name": "account",
          "type": "address"
        }
      ],
      "name": "balanceOf",
      "outputs": [
        {
          "internalType": "uint256",
          "name": "",
          "type": "uint256"
        }
      ],
      "stateMutability": "view",
      "type": "function",
      "constant": true
    },
    {
      "inputs": [
        {
          "internalType": "address",
          "name": "spender",
          "type": "address"
        },
        {
          "internalType": "uint256",
          "name": "subtractedValue",
          "type": "uint256"
        }
      ],
      "name": "decreaseAllowance",
      "outputs": [
        {
          "internalType": "bool",
          "name": "",
          "type": "bool"
        }
      ],
      "stateMutability": "nonpayable",
      "type": "function"
    },
    {
      "inputs": [
        {
          "internalType": "address",
          "name": "spender",
          "type": "address"
        },
        {
          "internalType": "uint256",
          "name": "addedValue",
          "type": "uint256"
        }
      ],
      "name": "increaseAllowance",
      "outputs": [
        {
          "internalType": "bool",
          "name": "",
          "type": "bool"
        }
      ],
      "stateMutability": "nonpayable",
      "type": "function"
    },
    {
      "inputs": [],
      "name": "name",
      "outputs": [
        {
          "internalType": "string",
          "name": "",
          "type": "string"
        }
      ],
      "stateMutability": "view",
      "type": "function",
      "constant": true
    },
    {
      "inputs": [],
      "name": "owner",
      "outputs": [
        {
          "internalType": "address",
          "name": "",
          "type": "address"
        }
      ],
      "stateMutability": "view",
      "type": "function",
      "constant": true
    },
    {
      "inputs": [],
      "name": "renounceOwnership",
      "outputs": [],
      "stateMutability": "nonpayable",
      "type": "function"
    },
    {
      "inputs": [],
      "name": "symbol",
      "outputs": [
        {
          "internalType": "string",
          "name": "",
          "type": "string"
        }
      ],
      "stateMutability": "view",
      "type": "function",
      "constant": true
    },
    {
      "inputs": [],
      "name": "totalSupply",
      "outputs": [
        {
          "internalType": "uint256",
          "name": "",
          "type": "uint256"
        }
      ],
      "stateMutability": "view",
      "type": "function",
      "constant": true
    },
    {
      "inputs": [
        {
          "internalType": "address",
          "name": "recipient",
          "type": "address"
        },
        {
          "internalType": "uint256",
          "name": "amount",
          "type": "uint256"
        }
      ],
      "name": "transfer",
      "outputs": [
        {
          "internalType": "bool",
          "name": "",
          "type": "bool"
        }
      ],
      "stateMutability": "nonpayable",
      "type": "function"
    },
    {
      "inputs": [
        {
          "internalType": "address",
          "name": "sender",
          "type": "address"
        },
        {
          "internalType": "address",
          "name": "recipient",
          "type": "address"
        },
        {
          "internalType": "uint256",
          "name": "amount",
          "type": "uint256"
        }
      ],
      "name": "transferFrom",
      "outputs": [
        {
          "internalType": "bool",
          "name": "",
          "type": "bool"
        }
      ],
      "stateMutability": "nonpayable",
      "type": "function"
    },
    {
      "inputs": [
        {
          "internalType": "address",
          "name": "newOwner",
          "type": "address"
        }
      ],
      "name": "transferOwnership",
      "outputs": [],
      "stateMutability": "nonpayable",
      "type": "function"
    },
    {
      "inputs": [
        {
          "internalType": "address",
          "name": "_to",
          "type": "address"
        },
        {
          "internalType": "uint256",
          "name": "_amount",
          "type": "uint256"
        }
      ],
      "name": "generateToken",
      "outputs": [],
      "stateMutability": "nonpayable",
      "type": "function"
    },
    {
      "inputs": [],
      "name": "decimals",
      "outputs": [
        {
          "internalType": "uint8",
          "name": "",
          "type": "uint8"
        }
      ],
      "stateMutability": "pure",
      "type": "function",
      "constant": true
    },
    {
      "inputs": [
        {
          "internalType": "address",
          "name": "_to",
          "type": "address"
        },
        {
          "internalType": "uint256",
          "name": "_amount",
          "type": "uint256"
        }
      ],
      "name": "buyToken",
      "outputs": [],
      "stateMutability": "payable",
      "type": "function",
      "payable": true
    },
    {
      "inputs": [],
      "name": "getContractBalance",
      "outputs": [],
      "stateMutability": "payable",
      "type": "function",
      "payable": true
    }
  ],
  "bytecode": "0x60806040526200001862046cd06200012d60201b60201c565b6006556200002e6127106200012d60201b60201c565b6007553480156200003e57600080fd5b506040518060400160405280600881526020017f4d6f6c6f6e64726f0000000000000000000000000000000000000000000000008152506040518060400160405280600381526020017f4d4c4400000000000000000000000000000000000000000000000000000000008152508160039080519060200190620000c3929190620003bb565b508060049080519060200190620000dc929190620003bb565b505050620000ff620000f36200016160201b60201c565b6200016960201b60201c565b62000113306006546200022f60201b60201c565b62000127336007546200022f60201b60201c565b6200082a565b60006200013f620003a860201b60201c565b600a6200014d919062000605565b826200015a919062000656565b9050919050565b600033905090565b6000600560009054906101000a900473ffffffffffffffffffffffffffffffffffffffff16905081600560006101000a81548173ffffffffffffffffffffffffffffffffffffffff021916908373ffffffffffffffffffffffffffffffffffffffff1602179055508173ffffffffffffffffffffffffffffffffffffffff168173ffffffffffffffffffffffffffffffffffffffff167f8be0079c531659141344cd1fd0a4f28419497f9722a3daafe3b4186f6b6457e060405160405180910390a35050565b600073ffffffffffffffffffffffffffffffffffffffff168273ffffffffffffffffffffffffffffffffffffffff161415620002a2576040517f08c379a0000000000000000000000000000000000000000000000000000000008152600401620002999062000718565b60405180910390fd5b620002b660008383620003b160201b60201c565b8060026000828254620002ca91906200073a565b92505081905550806000808473ffffffffffffffffffffffffffffffffffffffff1673ffffffffffffffffffffffffffffffffffffffff16815260200190815260200160002060008282546200032191906200073a565b925050819055508173ffffffffffffffffffffffffffffffffffffffff16600073ffffffffffffffffffffffffffffffffffffffff167fddf252ad1be2c89b69c2b068fc378daa952ba7f163c4a11628f55a4df523b3ef83604051620003889190620007a8565b60405180910390a3620003a460008383620003b660201b60201c565b5050565b60006004905090565b505050565b505050565b828054620003c990620007f4565b90600052602060002090601f016020900481019282620003ed576000855562000439565b82601f106200040857805160ff191683800117855562000439565b8280016001018555821562000439579182015b82811115620004385782518255916020019190600101906200041b565b5b5090506200044891906200044c565b5090565b5b80821115620004675760008160009055506001016200044d565b5090565b7f4e487b7100000000000000000000000000000000000000000000000000000000600052601160045260246000fd5b60008160011c9050919050565b6000808291508390505b6001851115620004f957808604811115620004d157620004d06200046b565b5b6001851615620004e15780820291505b8081029050620004f1856200049a565b9450620004b1565b94509492505050565b600082620005145760019050620005e7565b81620005245760009050620005e7565b81600181146200053d576002811462000548576200057e565b6001915050620005e7565b60ff8411156200055d576200055c6200046b565b5b8360020a9150848211156200057757620005766200046b565b5b50620005e7565b5060208310610133831016604e8410600b8410161715620005b85782820a905083811115620005b257620005b16200046b565b5b620005e7565b620005c78484846001620004a7565b92509050818404811115620005e157620005e06200046b565b5b81810290505b9392505050565b6000819050919050565b600060ff82169050919050565b60006200061282620005ee565b91506200061f83620005f8565b92506200064e7fffffffffffffffffffffffffffffffffffffffffffffffffffffffffffffffff848462000502565b905092915050565b60006200066382620005ee565b91506200067083620005ee565b9250817fffffffffffffffffffffffffffffffffffffffffffffffffffffffffffffffff0483118215151615620006ac57620006ab6200046b565b5b828202905092915050565b600082825260208201905092915050565b7f45524332303a206d696e7420746f20746865207a65726f206164647265737300600082015250565b600062000700601f83620006b7565b91506200070d82620006c8565b602082019050919050565b600060208201905081810360008301526200073381620006f1565b9050919050565b60006200074782620005ee565b91506200075483620005ee565b9250827fffffffffffffffffffffffffffffffffffffffffffffffffffffffffffffffff038211156200078c576200078b6200046b565b5b828201905092915050565b620007a281620005ee565b82525050565b6000602082019050620007bf600083018462000797565b92915050565b7f4e487b7100000000000000000000000000000000000000000000000000000000600052602260045260246000fd5b600060028204905060018216806200080d57607f821691505b60208210811415620008245762000823620007c5565b5b50919050565b611f49806200083a6000396000f3fe6080604052600436106100fe5760003560e01c80636f9fb98a1161009557806395d89b411161006457806395d89b4114610309578063a457c2d714610334578063a9059cbb14610371578063dd62ed3e146103ae578063f2fde38b146103eb576100fe565b80636f9fb98a1461028057806370a082311461028a578063715018a6146102c75780638da5cb5b146102de576100fe565b806323b872dd116100d157806323b872dd146101bf578063313ce567146101fc578063395093511461022757806368f8fc1014610264576100fe565b806306fdde0314610103578063095ea7b31461012e57806318160ddd1461016b578063188b537214610196575b600080fd5b34801561010f57600080fd5b50610118610414565b60405161012591906113df565b60405180910390f35b34801561013a57600080fd5b506101556004803603810190610150919061149a565b6104a6565b60405161016291906114f5565b60405180910390f35b34801561017757600080fd5b506101806104c4565b60405161018d919061151f565b60405180910390f35b3480156101a257600080fd5b506101bd60048036038101906101b8919061149a565b6104ce565b005b3480156101cb57600080fd5b506101e660048036038101906101e1919061153a565b610566565b6040516101f391906114f5565b60405180910390f35b34801561020857600080fd5b5061021161065e565b60405161021e91906115a9565b60405180910390f35b34801561023357600080fd5b5061024e6004803603810190610249919061149a565b610667565b60405161025b91906114f5565b60405180910390f35b61027e6004803603810190610279919061149a565b610713565b005b6102886107ba565b005b34801561029657600080fd5b506102b160048036038101906102ac91906115c4565b610886565b6040516102be919061151f565b60405180910390f35b3480156102d357600080fd5b506102dc6108ce565b005b3480156102ea57600080fd5b506102f3610956565b6040516103009190611600565b60405180910390f35b34801561031557600080fd5b5061031e610980565b60405161032b91906113df565b60405180910390f35b34801561034057600080fd5b5061035b6004803603810190610356919061149a565b610a12565b60405161036891906114f5565b60405180910390f35b34801561037d57600080fd5b506103986004803603810190610393919061149a565b610afd565b6040516103a591906114f5565b60405180910390f35b3480156103ba57600080fd5b506103d560048036038101906103d0919061161b565b610b1b565b6040516103e2919061151f565b60405180910390f35b3480156103f757600080fd5b50610412600480360381019061040d91906115c4565b610ba2565b005b6060600380546104239061168a565b80601f016020809104026020016040519081016040528092919081815260200182805461044f9061168a565b801561049c5780601f106104715761010080835404028352916020019161049c565b820191906000526020600020905b81548152906001019060200180831161047f57829003601f168201915b5050505050905090565b60006104ba6104b3610c9a565b8484610ca2565b6001905092915050565b6000600254905090565b6104d6610c9a565b73ffffffffffffffffffffffffffffffffffffffff166104f4610956565b73ffffffffffffffffffffffffffffffffffffffff161461054a576040517f08c379a000000000000000000000000000000000000000000000000000000000815260040161054190611708565b60405180910390fd5b600061055582610e6d565b90506105618382610e95565b505050565b6000610573848484610ff5565b6000600160008673ffffffffffffffffffffffffffffffffffffffff1673ffffffffffffffffffffffffffffffffffffffff16815260200190815260200160002060006105be610c9a565b73ffffffffffffffffffffffffffffffffffffffff1673ffffffffffffffffffffffffffffffffffffffff1681526020019081526020016000205490508281101561063e576040517f08c379a00000000000000000000000000000000000000000000000000000000081526004016106359061179a565b60405180910390fd5b6106528561064a610c9a565b858403610ca2565b60019150509392505050565b60006004905090565b6000610709610674610c9a565b848460016000610682610c9a565b73ffffffffffffffffffffffffffffffffffffffff1673ffffffffffffffffffffffffffffffffffffffff16815260200190815260200160002060008873ffffffffffffffffffffffffffffffffffffffff1673ffffffffffffffffffffffffffffffffffffffff1681526020019081526020016000205461070491906117e9565b610ca2565b6001905092915050565b60003411610756576040517f08c379a000000000000000000000000000000000000000000000000000000000815260040161074d906118b1565b60405180910390fd5b60008114156107ab573373ffffffffffffffffffffffffffffffffffffffff166108fc349081150290604051600060405180830381858888f193505050501580156107a5573d6000803e3d6000fd5b506107b6565b6107b58282610e95565b5b5050565b6107c2610c9a565b73ffffffffffffffffffffffffffffffffffffffff166107e0610956565b73ffffffffffffffffffffffffffffffffffffffff1614610836576040517f08c379a000000000000000000000000000000000000000000000000000000000815260040161082d90611708565b60405180910390fd5b61083e610956565b73ffffffffffffffffffffffffffffffffffffffff166108fc479081150290604051600060405180830381858888f19350505050158015610883573d6000803e3d6000fd5b50565b60008060008373ffffffffffffffffffffffffffffffffffffffff1673ffffffffffffffffffffffffffffffffffffffff168152602001908152602001600020549050919050565b6108d6610c9a565b73ffffffffffffffffffffffffffffffffffffffff166108f4610956565b73ffffffffffffffffffffffffffffffffffffffff161461094a576040517f08c379a000000000000000000000000000000000000000000000000000000000815260040161094190611708565b60405180910390fd5b6109546000611276565b565b6000600560009054906101000a900473ffffffffffffffffffffffffffffffffffffffff16905090565b60606004805461098f9061168a565b80601f01602080910402602001604051908101604052809291908181526020018280546109bb9061168a565b8015610a085780601f106109dd57610100808354040283529160200191610a08565b820191906000526020600020905b8154815290600101906020018083116109eb57829003601f168201915b5050505050905090565b60008060016000610a21610c9a565b73ffffffffffffffffffffffffffffffffffffffff1673ffffffffffffffffffffffffffffffffffffffff16815260200190815260200160002060008573ffffffffffffffffffffffffffffffffffffffff1673ffffffffffffffffffffffffffffffffffffffff16815260200190815260200160002054905082811015610ade576040517f08c379a0000000000000000000000000000000000000000000000000000000008152600401610ad590611943565b60405180910390fd5b610af2610ae9610c9a565b85858403610ca2565b600191505092915050565b6000610b11610b0a610c9a565b8484610ff5565b6001905092915050565b6000600160008473ffffffffffffffffffffffffffffffffffffffff1673ffffffffffffffffffffffffffffffffffffffff16815260200190815260200160002060008373ffffffffffffffffffffffffffffffffffffffff1673ffffffffffffffffffffffffffffffffffffffff16815260200190815260200160002054905092915050565b610baa610c9a565b73ffffffffffffffffffffffffffffffffffffffff16610bc8610956565b73ffffffffffffffffffffffffffffffffffffffff1614610c1e576040517f08c379a0000000000000000000000000000000000000000000000000000000008152600401610c1590611708565b60405180910390fd5b600073ffffffffffffffffffffffffffffffffffffffff168173ffffffffffffffffffffffffffffffffffffffff161415610c8e576040517f08c379a0000000000000000000000000000000000000000000000000000000008152600401610c85906119d5565b60405180910390fd5b610c9781611276565b50565b600033905090565b600073ffffffffffffffffffffffffffffffffffffffff168373ffffffffffffffffffffffffffffffffffffffff161415610d12576040517f08c379a0000000000000000000000000000000000000000000000000000000008152600401610d0990611a67565b60405180910390fd5b600073ffffffffffffffffffffffffffffffffffffffff168273ffffffffffffffffffffffffffffffffffffffff161415610d82576040517f08c379a0000000000000000000000000000000000000000000000000000000008152600401610d7990611af9565b60405180910390fd5b80600160008573ffffffffffffffffffffffffffffffffffffffff1673ffffffffffffffffffffffffffffffffffffffff16815260200190815260200160002060008473ffffffffffffffffffffffffffffffffffffffff1673ffffffffffffffffffffffffffffffffffffffff168152602001908152602001600020819055508173ffffffffffffffffffffffffffffffffffffffff168373ffffffffffffffffffffffffffffffffffffffff167f8c5be1e5ebec7d5bd14f71427d1e84f3dd0314c0f7b2291e5b200ac8c7c3b92583604051610e60919061151f565b60405180910390a3505050565b6000610e7761065e565b600a610e839190611c4c565b82610e8e9190611c97565b9050919050565b600073ffffffffffffffffffffffffffffffffffffffff168273ffffffffffffffffffffffffffffffffffffffff161415610f05576040517f08c379a0000000000000000000000000000000000000000000000000000000008152600401610efc90611d3d565b60405180910390fd5b610f116000838361133c565b8060026000828254610f2391906117e9565b92505081905550806000808473ffffffffffffffffffffffffffffffffffffffff1673ffffffffffffffffffffffffffffffffffffffff1681526020019081526020016000206000828254610f7891906117e9565b925050819055508173ffffffffffffffffffffffffffffffffffffffff16600073ffffffffffffffffffffffffffffffffffffffff167fddf252ad1be2c89b69c2b068fc378daa952ba7f163c4a11628f55a4df523b3ef83604051610fdd919061151f565b60405180910390a3610ff160008383611341565b5050565b600073ffffffffffffffffffffffffffffffffffffffff168373ffffffffffffffffffffffffffffffffffffffff161415611065576040517f08c379a000000000000000000000000000000000000000000000000000000000815260040161105c90611dcf565b60405180910390fd5b600073ffffffffffffffffffffffffffffffffffffffff168273ffffffffffffffffffffffffffffffffffffffff1614156110d5576040517f08c379a00000000000000000000000000000000000000000000000000000000081526004016110cc90611e61565b60405180910390fd5b6110e083838361133c565b60008060008573ffffffffffffffffffffffffffffffffffffffff1673ffffffffffffffffffffffffffffffffffffffff16815260200190815260200160002054905081811015611166576040517f08c379a000000000000000000000000000000000000000000000000000000000815260040161115d90611ef3565b60405180910390fd5b8181036000808673ffffffffffffffffffffffffffffffffffffffff1673ffffffffffffffffffffffffffffffffffffffff16815260200190815260200160002081905550816000808573ffffffffffffffffffffffffffffffffffffffff1673ffffffffffffffffffffffffffffffffffffffff16815260200190815260200160002060008282546111f991906117e9565b925050819055508273ffffffffffffffffffffffffffffffffffffffff168473ffffffffffffffffffffffffffffffffffffffff167fddf252ad1be2c89b69c2b068fc378daa952ba7f163c4a11628f55a4df523b3ef8460405161125d919061151f565b60405180910390a3611270848484611341565b50505050565b6000600560009054906101000a900473ffffffffffffffffffffffffffffffffffffffff16905081600560006101000a81548173ffffffffffffffffffffffffffffffffffffffff021916908373ffffffffffffffffffffffffffffffffffffffff1602179055508173ffffffffffffffffffffffffffffffffffffffff168173ffffffffffffffffffffffffffffffffffffffff167f8be0079c531659141344cd1fd0a4f28419497f9722a3daafe3b4186f6b6457e060405160405180910390a35050565b505050565b505050565b600081519050919050565b600082825260208201905092915050565b60005b83811015611380578082015181840152602081019050611365565b8381111561138f576000848401525b50505050565b6000601f19601f8301169050919050565b60006113b182611346565b6113bb8185611351565b93506113cb818560208601611362565b6113d481611395565b840191505092915050565b600060208201905081810360008301526113f981846113a6565b905092915050565b600080fd5b600073ffffffffffffffffffffffffffffffffffffffff82169050919050565b600061143182611406565b9050919050565b61144181611426565b811461144c57600080fd5b50565b60008135905061145e81611438565b92915050565b6000819050919050565b61147781611464565b811461148257600080fd5b50565b6000813590506114948161146e565b92915050565b600080604083850312156114b1576114b0611401565b5b60006114bf8582860161144f565b92505060206114d085828601611485565b9150509250929050565b60008115159050919050565b6114ef816114da565b82525050565b600060208201905061150a60008301846114e6565b92915050565b61151981611464565b82525050565b60006020820190506115346000830184611510565b92915050565b60008060006060848603121561155357611552611401565b5b60006115618682870161144f565b93505060206115728682870161144f565b925050604061158386828701611485565b9150509250925092565b600060ff82169050919050565b6115a38161158d565b82525050565b60006020820190506115be600083018461159a565b92915050565b6000602082840312156115da576115d9611401565b5b60006115e88482850161144f565b91505092915050565b6115fa81611426565b82525050565b600060208201905061161560008301846115f1565b92915050565b6000806040838503121561163257611631611401565b5b60006116408582860161144f565b92505060206116518582860161144f565b9150509250929050565b7f4e487b7100000000000000000000000000000000000000000000000000000000600052602260045260246000fd5b600060028204905060018216806116a257607f821691505b602082108114156116b6576116b561165b565b5b50919050565b7f4f776e61626c653a2063616c6c6572206973206e6f7420746865206f776e6572600082015250565b60006116f2602083611351565b91506116fd826116bc565b602082019050919050565b60006020820190508181036000830152611721816116e5565b9050919050565b7f45524332303a207472616e7366657220616d6f756e742065786365656473206160008201527f6c6c6f77616e6365000000000000000000000000000000000000000000000000602082015250565b6000611784602883611351565b915061178f82611728565b604082019050919050565b600060208201905081810360008301526117b381611777565b9050919050565b7f4e487b7100000000000000000000000000000000000000000000000000000000600052601160045260246000fd5b60006117f482611464565b91506117ff83611464565b9250827fffffffffffffffffffffffffffffffffffffffffffffffffffffffffffffffff03821115611834576118336117ba565b5b828201905092915050565b7f596f752073686f756c642073656e6420657468657265756d20746f206275792060008201527f4d4c4420746f6b656e0000000000000000000000000000000000000000000000602082015250565b600061189b602983611351565b91506118a68261183f565b604082019050919050565b600060208201905081810360008301526118ca8161188e565b9050919050565b7f45524332303a2064656372656173656420616c6c6f77616e63652062656c6f7760008201527f207a65726f000000000000000000000000000000000000000000000000000000602082015250565b600061192d602583611351565b9150611938826118d1565b604082019050919050565b6000602082019050818103600083015261195c81611920565b9050919050565b7f4f776e61626c653a206e6577206f776e657220697320746865207a65726f206160008201527f6464726573730000000000000000000000000000000000000000000000000000602082015250565b60006119bf602683611351565b91506119ca82611963565b604082019050919050565b600060208201905081810360008301526119ee816119b2565b9050919050565b7f45524332303a20617070726f76652066726f6d20746865207a65726f2061646460008201527f7265737300000000000000000000000000000000000000000000000000000000602082015250565b6000611a51602483611351565b9150611a5c826119f5565b604082019050919050565b60006020820190508181036000830152611a8081611a44565b9050919050565b7f45524332303a20617070726f766520746f20746865207a65726f20616464726560008201527f7373000000000000000000000000000000000000000000000000000000000000602082015250565b6000611ae3602283611351565b9150611aee82611a87565b604082019050919050565b60006020820190508181036000830152611b1281611ad6565b9050919050565b60008160011c9050919050565b6000808291508390505b6001851115611b7057808604811115611b4c57611b4b6117ba565b5b6001851615611b5b5780820291505b8081029050611b6985611b19565b9450611b30565b94509492505050565b600082611b895760019050611c45565b81611b975760009050611c45565b8160018114611bad5760028114611bb757611be6565b6001915050611c45565b60ff841115611bc957611bc86117ba565b5b8360020a915084821115611be057611bdf6117ba565b5b50611c45565b5060208310610133831016604e8410600b8410161715611c1b5782820a905083811115611c1657611c156117ba565b5b611c45565b611c288484846001611b26565b92509050818404811115611c3f57611c3e6117ba565b5b81810290505b9392505050565b6000611c5782611464565b9150611c628361158d565b9250611c8f7fffffffffffffffffffffffffffffffffffffffffffffffffffffffffffffffff8484611b79565b905092915050565b6000611ca282611464565b9150611cad83611464565b9250817fffffffffffffffffffffffffffffffffffffffffffffffffffffffffffffffff0483118215151615611ce657611ce56117ba565b5b828202905092915050565b7f45524332303a206d696e7420746f20746865207a65726f206164647265737300600082015250565b6000611d27601f83611351565b9150611d3282611cf1565b602082019050919050565b60006020820190508181036000830152611d5681611d1a565b9050919050565b7f45524332303a207472616e736665722066726f6d20746865207a65726f20616460008201527f6472657373000000000000000000000000000000000000000000000000000000602082015250565b6000611db9602583611351565b9150611dc482611d5d565b604082019050919050565b60006020820190508181036000830152611de881611dac565b9050919050565b7f45524332303a207472616e7366657220746f20746865207a65726f206164647260008201527f6573730000000000000000000000000000000000000000000000000000000000602082015250565b6000611e4b602383611351565b9150611e5682611def565b604082019050919050565b60006020820190508181036000830152611e7a81611e3e565b9050919050565b7f45524332303a207472616e7366657220616d6f756e742065786365656473206260008201527f616c616e63650000000000000000000000000000000000000000000000000000602082015250565b6000611edd602683611351565b9150611ee882611e81565b604082019050919050565b60006020820190508181036000830152611f0c81611ed0565b905091905056fea264697066735822122016d848d672eef09a550bff62ebba2248249696dda9d7b4bcd127a7b17aee2f0364736f6c634300080a0033",
  "immutableReferences": {},
  "source": "pragma solidity ^0.8.9;\r\n\r\nimport \"../node_modules/@openzeppelin/contracts/token/ERC20/ERC20.sol\";\r\nimport \"../node_modules/@openzeppelin/contracts/access/Ownable.sol\";\r\n\r\ncontract MLDToken is ERC20, Ownable {\r\n\r\n    uint256 supplyTotal = _convertTokenWithDecimals(290000);\r\n    uint256 supplyInitial = _convertTokenWithDecimals(10000);\r\n\r\n    constructor() ERC20(\"Molondro\", \"MLD\") {\r\n        // This is the total supply that we gonna generate \r\n        // of our token less the initial supply used for the presale\r\n        _mint(address(this), supplyTotal);\r\n        _mint(msg.sender, supplyInitial);\r\n    }\r\n\r\n    function generateToken(address _to, uint256 _amount) public onlyOwner{\r\n        uint256 tokenConverted = _convertTokenWithDecimals(_amount);\r\n        _mint(_to, tokenConverted);\r\n    }\r\n\r\n    function _convertTokenWithDecimals(uint256 _amount) private pure returns(uint256) {\r\n        return _amount * 10**decimals();\r\n    }\r\n\r\n    function decimals() override public pure returns(uint8) {\r\n        return 4;\r\n    }\r\n\r\n    function buyToken(address _to, uint256 _amount) public payable {\r\n        require(msg.value > 0 ether, \"You should send ethereum to buy MLD token\");\r\n        if (_amount == 0) {\r\n            payable(msg.sender).transfer(msg.value);\r\n            return;\r\n        }\r\n        _mint(_to, _amount);\r\n    }\r\n\r\n    function getContractBalance() public payable onlyOwner{\r\n        payable(owner()).transfer(address(this).balance);\r\n    }\r\n}",
  "sourcePath": "C:\\Users\\alber\\Desktop\\nft\\contracts\\MLDToken.sol",
  "compiler": {
    "name": "solc",
    "version": "0.8.10+commit.fc410830.Emscripten.clang"
  },
  "schemaVersion": "3.4.4",
  "updatedAt": "2022-01-31T19:39:14.407Z",
  "networkType": "ethereum",
  "devdoc": {
    "kind": "dev",
    "methods": {
      "allowance(address,address)": {
        "details": "See {IERC20-allowance}."
      },
      "approve(address,uint256)": {
        "details": "See {IERC20-approve}. Requirements: - `spender` cannot be the zero address."
      },
      "balanceOf(address)": {
        "details": "See {IERC20-balanceOf}."
      },
      "decimals()": {
        "details": "Returns the number of decimals used to get its user representation. For example, if `decimals` equals `2`, a balance of `505` tokens should be displayed to a user as `5.05` (`505 / 10 ** 2`). Tokens usually opt for a value of 18, imitating the relationship between Ether and Wei. This is the value {ERC20} uses, unless this function is overridden; NOTE: This information is only used for _display_ purposes: it in no way affects any of the arithmetic of the contract, including {IERC20-balanceOf} and {IERC20-transfer}."
      },
      "decreaseAllowance(address,uint256)": {
        "details": "Atomically decreases the allowance granted to `spender` by the caller. This is an alternative to {approve} that can be used as a mitigation for problems described in {IERC20-approve}. Emits an {Approval} event indicating the updated allowance. Requirements: - `spender` cannot be the zero address. - `spender` must have allowance for the caller of at least `subtractedValue`."
      },
      "increaseAllowance(address,uint256)": {
        "details": "Atomically increases the allowance granted to `spender` by the caller. This is an alternative to {approve} that can be used as a mitigation for problems described in {IERC20-approve}. Emits an {Approval} event indicating the updated allowance. Requirements: - `spender` cannot be the zero address."
      },
      "name()": {
        "details": "Returns the name of the token."
      },
      "owner()": {
        "details": "Returns the address of the current owner."
      },
      "renounceOwnership()": {
        "details": "Leaves the contract without owner. It will not be possible to call `onlyOwner` functions anymore. Can only be called by the current owner. NOTE: Renouncing ownership will leave the contract without an owner, thereby removing any functionality that is only available to the owner."
      },
      "symbol()": {
        "details": "Returns the symbol of the token, usually a shorter version of the name."
      },
      "totalSupply()": {
        "details": "See {IERC20-totalSupply}."
      },
      "transfer(address,uint256)": {
        "details": "See {IERC20-transfer}. Requirements: - `recipient` cannot be the zero address. - the caller must have a balance of at least `amount`."
      },
      "transferFrom(address,address,uint256)": {
        "details": "See {IERC20-transferFrom}. Emits an {Approval} event indicating the updated allowance. This is not required by the EIP. See the note at the beginning of {ERC20}. Requirements: - `sender` and `recipient` cannot be the zero address. - `sender` must have a balance of at least `amount`. - the caller must have allowance for ``sender``'s tokens of at least `amount`."
      },
      "transferOwnership(address)": {
        "details": "Transfers ownership of the contract to a new account (`newOwner`). Can only be called by the current owner."
      }
    },
    "version": 1
  },
  "userdoc": {
    "kind": "user",
    "methods": {},
    "version": 1
  }
}